:020000040800F2
:10000000000002202D2A000895030008990300082B
:100010009D030008A1030008A503000800000000DC
:10002000000000000000000000000000A90300081C
:10003000AD03000800000000B1030008B50300088C
:100040007D2A00087D2A00087D2A00087D2A0008F4
:100050007D2A00087D2A00087D2A00087D2A0008E4
:100060007D2A00087D2A00087D2A00087D2A0008D4
:100070007D2A00087D2A00087D2A00087D2A0008C4
:100080007D2A00087D2A00087D2A00087D2A0008B4
:100090007D2A00087D2A00087D2A00087D2A0008A4
:1000A0007D2A00087D2A00087D2A00087D2A000894
:1000B0007D2A00087D2A00087D2A00087D2A000884
:1000C0007D2A00087D2A00087D2A00087D2A000874
:1000D0007D2A00087D2A00087D2A00087D2A000864
:1000E0007D2A00087D2A00087D2A00087D2A000854
:1000F0007D2A00087D2A00087D2A0008510B00088F
:100100007D2A00087D2A00087D2A00087D2A000833
:100110007D2A00087D2A00087D2A00087D2A000823
:100120007D2A00087D2A00087D2A00087D2A000813
:100130007D2A00087D2A00087D2A00087D2A000803
:100140007D2A00087D2A00087D2A00087D2A0008F3
:100150007D2A00087D2A00087D2A00087D2A0008E3
:100160007D2A00087D2A00087D2A00087D2A0008D3
:100170007D2A00087D2A00087D2A00087D2A0008C3
:080180007D2A00087D2A000819
:10018800314BD3F80023501CB0F57A7F08BF00200C
:100198002DE9F041C3F800034FF44060C4F20200B7
:1001A800002942D04FF4005101F012FA4FF4406098
:1001B800C4F202004FF4804101F00CFA2248DFF843
:1001C80098C0224BDCF80050214F021D03F1800833
:1001D8004FF4FA7604E004324345A4F6EC751DD0DA
:1001E80023F8026B29882C4622F8041C34F8141BC7
:1001F80023F8026BBC4228BFA5F6EC7422F8021C57
:100208002588214622F8045B31F8145BB94222F8AC
:10021800025CE0D2043243450D46E1D18021CCF89E
:100228000050BDE8F04100F063BC4FF4804101F09C
:10023800CFF94FF44060C4F202004FF4005101F0CE
:10024800C9F90448BBE700BFE8080020E80A002015
:1002580018AB0008E80900200000002040F2140351
:10026800C2F200032DE9F041196844F6D352C1F2F5
:100278006202A2FB01304EF210054FF46D43CEF23C
:1002880000058609CEF200030024721E0727F0211C
:100298004FF4406686B06A60C4F2020683F8231001
:1002A8000820AC6001212F6000F056FF01254FF4B3
:1002B80070434FF003083046694600938DF8058077
:1002C8008DF804508DF806408DF8074001F0F0F8DD
:1002D80029464FF4003000F069FF2846294600F00F
:1002E8003BFF02236022694630468DF804300092B5
:1002F8008DF805808DF806408DF807504FF4884832
:1003080001F0D6F8304605213A4601F071F9C4F2F9
:100318000008304606213A4601F06AF9404602A92B
:100328004FF4E1320C230292ADF80C40ADF80E40C8
:10033800ADF81040ADF81440ADF8123001F0D6F920
:100348004046294601F05AFA06B0BDE8F08100BFE0
:10035800054B1A6812B11868411E1960034B1A68D8
:10036800501C1860704700BFC40C0020C80C002047
:1003780082B0044A0190019B136010680028FCD1E8
:1003880002B07047C40C0020704700BF704700BF20
:10039800FEE700BFFEE700BFFEE700BFFEE700BFC5
:1003A800704700BF704700BF704700BFFFF7D0BF5E
:1003B8004FF46D42CEF200024FF46053D2F8881029
:1003C800C4F2020341F47000C2F8880019680022E0
:1003D80041F0010018609A60186843F2100120F09B
:1003E800847020F48030C2F20041186059601968A6
:1003F80082B021F480201860DA60009201921A68B5
:1004080042F480311960184603E00099B1F5A06FF5
:1004180009D0036803F40032019200994B1C009341
:10042800019A002AF1D04FF46050C4F20200036828
:1004380013F400320DD001210191019801280CD04C
:100448004FF46D43CEF200034FF00061996002B0A3
:100458007047019201980128F2D14FF46053C4F219
:1004680002034FF4E042196CC4F2000241F08050DC
:100478001864116841F4804010609A689A6099681D
:1004880041F400409860996845F2084241F4A05050
:10049800C0F2407298605A60196841F080721A6020
:1004A800184601684FF460538A01C4F20203F8D574
:1004B8004FF47052C4F2020240F20560106099686D
:1004C80021F003029A60986840F0020199609A68E6
:1004D80002F00C000828FAD1B2E700BF4FF46053CD
:1004E800C4F202039A6802F00C00042812D008280B
:1004F80015D04FF41051C0F2F4014FF46050C4F21B
:100508000200184B8268C2F303101A5C21FA02F148
:100518001961704747F64001C0F27D11EDE7586850
:100528005A6810F4800F586802F03F0114BF47F66C
:1005380040034FF41053C0F388124FF4605014BFB7
:10054800C0F27D13C0F2F403C4F20200B3FBF1F36E
:1005580003FB02F14268C2F30143581C4200B1FB9D
:10056800F2F1CAE70400002000207047002070471D
:1005780001207047002070474FF0FF30704700BFE0
:1005880000207047064B186838B141186A469142F6
:1005980094BF19604FF0FF30704702481860F4E7C5
:1005A800F00B0020D00C002070B5161E14DD0C4690
:1005B8008D194FF48840C4F2000014F8011B01F0B3
:1005C80051F94FF48840C4F20000402101F00EFABE
:1005D8000028F6D0AC42ECD1304670BD10B52DEDF8
:1005E800028BB5EEC00A86B00023F1EE10FAB0EE29
:1005F800408AADF81430044606D52D22B1EE408A63
:100608008DF814208DF81530B0EE480A02F034FA4F
:1006180007EE904AF0EE408AF8EEE70AB2EE040AD6
:1006280002F070FA78EE688AF6EE000A48EE800A60
:10063800BCEEC88ABCEEE00A009401948DED020A73
:100648000549064805AA18EE103A03F0B9FC034814
:1006580006B0BDEC028B10BD18AB0008F40B0020EF
:1006680010B44FF4A844C4F20004228B02F0020232
:100678004FF4A84392B2C4F20003002AF5D11C88B3
:10068800A2B242F480741C809C8A4FF4A842E4070A
:10069800C4F20002F8D594231382948A04F0020469
:1006A8004FF4A843A4B2C4F20003002CF5D01A8B6F
:1006B8001882988A00F080004FF4A84280B2C4F2F1
:1006C80000020028F5D01182918A01F004004FF44D
:1006D800A84381B2C4F200030029F5D01A8890B269
:1006E80040F40071198010BC704700BF46F2B80290
:1006F800C4F2020242F65041104BC0F2010110B59B
:10070800116018681C69506043F60C41C4F200017E
:10071800916058680421D0605161106840F001016F
:10072800116000225A609868012280F001019960E6
:100738001A7314B199685869A04710BD580C002065
:1007480008B502209E21FFF78BFF4FF47053C4F2C7
:1007580000034FF460629A8308BD00BF08B5022009
:100768000121FFF77DFF4FF47053C4F2000300220C
:100778009A8308BD193010B5C4B221462020FFF76E
:100788006FFF21202146BDE81040FFF769BF00BF79
:100798002DE9F04FDFF874E20746012087B0002406
:1007A80088460146CEF80440CEF81040CEF8004006
:1007B800CEF81440CEF8084016468EF80C401D4678
:1007C80000F0CAFC0220012100F0C6FC042001212F
:1007D80000F0C2FC0820012100F0BEFC01214FF40A
:1007E800001000F0B9FC4FF4406B01214FF40010E9
:1007F8004FF0100A00F0DAFCC4F2020B01214FF4AA
:10080800004000F0D3FC4FF00209012358460DEBDD
:100818000A018DF814300193CDF810A08DF8164018
:100828008DF815908DF8174000F042FE019B8DF869
:1008380015904FF480604FF41072C4F202000DEB73
:100848000A018DF8163004928DF814908DF817402F
:1008580000F02EFE4FF4806006210422C4F202004C
:1008680000F0C6FE4FF4806004220921C4F20200A1
:1008780000F0BEFE4FF400604FF4A452C4F2020030
:100888000DEB0A0104928DF815908DF814908DF8EF
:1008980016408DF8174000F00BFE4FF4006007215A
:1008A8000622C4F2020000F0A3FE4FF40060C4F276
:1008B80002000A21062200F09BFE4FF40060062287
:1008C8000C21C4F2020000F093FE2046C4F202009C
:1008D8000DEB0A01CDF810A08DF815908DF8149045
:1008E8008DF816408DF8174000F0E2FD20460421EF
:1008F800C4F20200062200F07BFEABF81AA00394B3
:10090800039844F6FE71884206DC00BF039C631C12
:100918000393039C8C42F8DD4FF44063C4F2020356
:1009280010221A8301214FF4001000F085FC0021E9
:100938004FF4001000F080FC4FF4A843C4F2000309
:100948002A20D22248F23301988019819A832B22D7
:100958001A8440F201421A8002200121FFF780FE2A
:100968000420AF21FFF77CFE05208121FFF778FEE8
:1009780004210620FFF774FEFF20FFF7FBFE02208C
:100988009E21FFF76DFE0A200021FFF769FE0E2069
:100998000421FFF765FE27200021FFF761FE1F20D5
:1009A8000F21FFF75DFE1A200A21FFF759FE1B20D1
:1009B8000A21FFF755FE4FF47053C4F200034FF4B9
:1009C8006050C4F20200002199838268BF0122F4BA
:1009D800000347EA08778360C0F88470016841F033
:1009E8008062026003681B01FCD546F400764FF470
:1009F8007050C4F2000046EA0525ADB24FF46061BC
:100A08000584818307B0BDE8F08F00BF580C002033
:100A18004FF47051C4F200010A8902F002024FF447
:100A2800705392B2C4F20003002AF5D080B29881C4
:100A3800704700BF4FF47053C4F2000380B298812E
:100A4800704700BF46F2B802C4F2020270B51368DC
:100A580023F00104064614600846116811F00103EA
:100A6800FBD14FF461450D4ACEF200054FF4004129
:100A78004FF470541373C4F200046960402185F880
:100A88002F13A18889B241F00201A180166150613B
:100A980093600EB19168B04770BD00BF580C00203C
:100AA80046F2B803C4F2020310B4196821F0010039
:100AB8001A461860146814F00103FBD10B484FF470
:100AC8007051C4F2000103738A8822F002024FF4C5
:100AD80061441204CEF20004120C8A804FF40041E3
:100AE800C4F88410036110BC704700BF580C002084
:100AF8000E4B5A6810B50AB1002010BD4FF4614280
:100B0800CEF200024FF40044C2F8844058601960E5
:100B1800187B40B14FF46141CEF200014FF400431D
:100B28004B60012010BDFFF7E1FDF3E7580C0020F2
:100B380038B505460C4600E030BF28462146FFF789
:100B4800D7FF0028F8D038BD4FF4C043C4F20203E1
:100B5800054AD96841F00060D86053680BB1FFF7C7
:100B6800C5BD1373704700BF580C002010B504466C
:100B78000023481C84E80900A360022102F020FE3B
:100B8800E06010BDC06802F0A9BE00BF82680368BB
:100B98004168013292FBF3F003FB1023591A4A42D1
:100BA80052EB0100704700BF82684068111A4B423F
:100BB80053EB0100704700BF30B482680D88C468E9
:100BC8000368416824F81250013292FBF3F403FBE6
:100BD80014228A42826005D1013292FBF3F103FBB1
:100BE8001123436030BC704710B490E81800121904
:100BF80092FBF3F4C06803FB142330F81300088059
:100C080010BC704742680368013292FBF3F103FBA2
:100C180011234360704700BF30B583B002AD002395
:100C28000A4825F8023D44F62061FFF79FFF44F685
:100C3800226406482946FFF7BFFF013C03482946BE
:100C4800FFF7BAFF013CF4D103B030BDB40C00206B
:100C58002DE9F0472DED028B924682B00D46002A11
:100C680000F0F880B0F90020DFF8F89107EE902A3C
:100C780099ED007AB8EEE70AB6EE008A07EE080AA0
:100C88000446FDEEC00A764810EE903A0DF10601D2
:100C9800ADF80630FFF790FF00220DF1060170480D
:100CA800FFF7A2FF6E48FFF7ADFFBDF9060034F964
:100CB800021B01EE100A01EE901AB8EEC12AF8EEF6
:100CC800E12A42EE082A4FF00108BDEEE23A0AF1A5
:100CD800FF3613EE103A1AB203EE902AF8EEE30A42
:100CE800D04525F8023B06F00106C9ED000A00F0E0
:100CF800B180D6B3B4F9000004EE100AF8EEC44A85
:100D080040EE884A5648BDEEE45A0DF1060115EE4C
:100D1800103AADF80630FFF74FFF00220DF106013B
:100D28004F48FFF761FF4E48FFF76CFFBDF906100B
:100D380034F9022B05EE901A06EE102AF8EEE56A51
:100D4800F8EEC67A46EE887A4FF00208BDEEE77AEA
:100D5800D04517EE100A03B200EE103AF8EEC00ABA
:100D680025F8020BC9ED000A74D0B4F900703C48AC
:100D780001EE107AF8EEC11A40EE881A0DF106015C
:100D8800BDEEE12A274612EE106AADF80660FFF7BD
:100D980013FF00220DF106013148FFF725FF304807
:100DA800FFF730FFBDF9061037F9022B2C4802EE89
:100DB800901A03EE102AF8EEE23AB8EEC34A03EEB0
:100DC800884A2E46FDEEC44A0DF1060114EE903A0B
:100DD80026F8023B64881AB205EE102A23B206EE02
:100DE800103AF8EEC55AF8EEC66A45EE886AC9EDBB
:100DF800005AFDEEE67A3C4617EE902AADF806203A
:100E0800FFF7DAFE00220DF106011548FFF7ECFEA8
:100E18001348FFF7F7FEBDF9060034F9021B07EE89
:100E2800100A00EE101AF8EEC70AB8EEC01A00EE63
:100E3800881A08F10208FDEEC11A11EE903A1AB2AA
:100E480002EE102AF8EEC20A6B80B51CD045C9ED37
:100E5800000A8AD102B0BDEC028BBDE8F08700BF62
:100E6800B40C0020700C002030AD000800000020F9
:100E7800E8080020E8080020D00C00204FF4605358
:100E8800C4F202030022196841F0010119609A6056
:100E9800186843F2100120F08470C2F2004120F477
:100EA800803018605960196821F480211960DA606F
:100EB800704700BF43F60203C4F2020300221A700F
:100EC8001870704782B000234FF460520193C4F247
:100ED800020213689B030FD4019B01330193019B0A
:100EE800B3F5A06FF5D14FF46053C4F2020318684C
:100EF800C0F3404002B07047019B01330193019B4E
:100F0800F1E700BF4FF46053C4F202031A6822F0FD
:100F1800F80242EAC0001860704700BF0023C4F21C
:100F280047231860704700BF43F67003C4F20203FA
:100F3800002201281A701A7005D0042802D105224F
:100F48001A70704770471870704700BF4FF4686395
:100F5800C4F247231860704710B4019C40EA04604B
:100F68005B0801434FF46054C4F20204013B41EAB8
:100F7800821242EA034363605DF8044B704700BF86
:100F88006023C4F247231860704700BF4FF46053D2
:100F98000907C4F2020341EA8010C3F884007047CD
:100FA8006823C4F247231860704700BF4C23C4F27B
:100FB80047231860704700BF4FF46053C4F2020320
:100FC8009A6822F0EC62114308439860704700BFAA
:100FD8004FF46053C4F202039A6822F07842114336
:100FE80008439860704700BF4FF46053C4F202038F
:100FF8009A6822F003021043986070474FF46053D8
:10100800C4F20203986800F00C0070474FF4605374
:10101800C4F202039A6822F0F00210439860704705
:101028004FF46053C4F202039A6822F4E05210436A
:10103800986070474FF46053C4F202039A6822F430
:10104800604242EAC0009860704700BF4FF46053A6
:10105800C4F2020310B49A6802F00C02042A24D0E5
:10106800082A28D04FF41051C0F2F40101604FF45F
:101078006052C4F2020240F218039468C2F20003FC
:10108800C4F303141C5DE14041609468C4F38224F6
:101098001C5D21FA04F4846092685DF8044BC2F385
:1010A80042329B5CD940C160704747F64001C0F2AC
:1010B8007D110160DBE75C685A6814F4800F5C6896
:1010C80015BF47F640034FF41053C0F27D13C0F22A
:1010D800F40302F03F02B3FBF2F14FF46053C4F2A1
:1010E8000203C4F388145B68C3F30143013301FBB3
:1010F80004F15B00B1FBF3F10160B8E700F4407361
:10110800B3F5407F0CD14FF46053C4F2020320F0D2
:1011180070419A6821F4407122F4F8120A439A60E7
:101128004FF46053C4F20203C0F30B001A6F10436C
:101138001867704740F63C63C4F24723186070474D
:101148004FF46463C4F24723186070474FF4AE73DA
:10115800C4F24723186070474FF46053C4F2020387
:101168001A6B19B922EA0000186370471043186314
:10117800704700BF4FF46053C4F202035A6B19B9A9
:1011880022EA00005863704710435863704700BF55
:101198004FF46053C4F202039A6B19B922EA0000B3
:1011A8009863704710439863704700BF4FF46053CB
:1011B800C4F202031A6C19B922EA000018647047D5
:1011C80010431864704700BF4FF46053C4F2020321
:1011D8005A6C19B922EA00005864704710435864E1
:1011E800704700BF4FF46053C4F202031A6919B97B
:1011F80022EA00001861704710431861704700BF69
:101208004FF46053C4F202035A6919B922EA000084
:101218005861704710435861704700BF4FF46053DE
:10122800C4F202039A6919B922EA0000986170476A
:1012380010439861704700BF4FF46053C4F2020333
:101248001A6A19B922EA0000186270471043186236
:10125800704700BF4FF46053C4F202035A6A19B9C9
:1012680022EA00005862704710435862704700BF76
:101278004FF46053C4F202031A6D19B922EA000050
:101288001865704710431865704700BF4FF46053E6
:10129800C4F202035A6D19B922EA00005865704772
:1012A80010435865704700BF4FF46053C4F20203FF
:1012B8009A6D19B922EA000098657047104398653D
:1012C800704700BF4FF46053C4F202031A6E19B995
:1012D80022EA00001866704710431866704700BF7E
:1012E8004FF46053C4F202035A6E19B922EA00009F
:1012F8005866704710435866704700BF43F60D03A1
:10130800C4F202031A7819B922EA0000187070476B
:1013180010431870704700BF4309012B0ED0022BF1
:101328004FF46053C4F2020300F01F000CBF1B6FA0
:101338005B6F23FA00F000F0010070474FF4605330
:10134800C4F2020300F01F001B6823FA00F000F04B
:10135800010070474FF46053C4F202035A6F42F021
:1013680080725A67704700BF4FF46053C4F202039B
:10137800DB6818420CBF00200120704743F60E03BB
:10138800C4F202031870704708B50023C4F20203C0
:1013980098423CD04FF48063C4F20203984240D094
:1013A8004FF40063C4F20203984244D04FF4406300
:1013B800C4F20203984248D04FF48053C4F20203A7
:1013C80098424CD04FF4A053C4F20203984250D034
:1013D8004FF4C053C4F20203984254D04FF4E05380
:1013E800C4F20203984258D04FF40053C4F20203E7
:1013F800984200D008BD4FF480700121FFF7F2FE3B
:101408004FF480700021BDE80840FFF7EBBE0120D3
:101418000146FFF7E7FE01200021BDE80840FFF77D
:10142800E1BE02200121FFF7DDFE02200021BDE818
:101438000840FFF7D7BE04200121FFF7D3FE0420A0
:101448000021BDE80840FFF7CDBE08200121FFF7C5
:10145800C9FE08200021BDE80840FFF7C3BE1020E0
:101468000121FFF7BFFE10200021BDE80840FFF76B
:10147800B9BE20200121FFF7B5FE20200021BDE8DC
:101488000840FFF7AFBE40200121FFF7ABFE402028
:101498000021BDE80840FFF7A5BE80200121FFF725
:1014A800A1FE80200021BDE80840FFF79BBE00BFD9
:1014B80000222DE9F04313460E6801274FF0030C74
:1014C80004E00133102B02F102022ED007FA03F4D4
:1014D80004EA0605A542F4D1D0F8008091F804E0AA
:1014E8000CFA02F4E44304EA0808C0F80080D0F8D3
:1014F80000800EFA02F90EF1FF3E5FFA8EFE49EA0D
:101508000808BEF1010FC0F8008010D9C56891F82D
:1015180007E02C40C460C5680EFA02F401332C437E
:10152800102BC46002F10202D0D1BDE8F083D0F8DC
:10153800089091F8058091F806E004EA0909C0F8D6
:101548000890D0F8089008FA02F848EA0908C0F8A4
:101558000880D0F8048028EA0505456045680EFA39
:1015680003FE1FFA8EFE4EEA05054560CEE700BF72
:1015780000234FF6FF720260037143718371C371D8
:10158800704700BF82B04FF480330193019B0B4337
:101598000193019BC361C161019BC361C36901934D
:1015A800C369019302B07047036919420CBF002058
:1015B80001207047006980B2704700BF4369194233
:1015C8000CBF002001207047406980B2704700BFFF
:1015D80001837047418370470AB94183704701838B
:1015E800704700BF41617047436959404161704786
:1015F800CB0800EB830001F0070110B48900046AEE
:101608000F238B4024EA03030362036A5DF8044B4B
:101618008A4013430362704708B54FF48053C4F2FD
:101628000103984228D04FF48843C4F2000398423B
:101638002CD04FF49043C4F20003984232D04FF4B8
:101648009843C4F20003984238D04FF4A043C4F240
:10165800000398423ED04FF4A053C4F201039842CD
:1016680000D008BD20200121FFF7F4FD2020002133
:10167800BDE80840FFF7EEBD10200121FFF7EAFDA5
:1016880010200021BDE80840FFF7E4BD4FF400300A
:101698000121FFF7D1FD4FF400300021BDE80840DB
:1016A800FFF7CABD4FF480200121FFF7C5FD4FF4B5
:1016B80080200021BDE80840FFF7BEBD4FF40020A0
:1016C8000121FFF7B9FD4FF400200021BDE80840D3
:1016D800FFF7B2BD4FF480100121FFF7ADFD4FF4C5
:1016E80080100021BDE80840FFF7A6BD028ACB881C
:1016F80022F440521204F0B5120C04461A430F8922
:101708008E8848890D4689892282A38923F4B0539B
:1017180047EA060223F00C0302431B0492B21B0C97
:101728001343A381A38A23F440731B041B0C85B0C5
:101738000B43A3826846FFF789FCA6890298039B9E
:101748004FF4A0514FF48052C4F20101C4F20102D7
:10175800944218BF8C4232B218BF0346002A2A6846
:10176800A08903EB8303B4BF5200920003EB830309
:10177800B3FBF2F348F21F52C5F2EB12A2FB03517E
:1017880000B264254909002801FB1533B5BFDB0009
:101798001B0132333233B5BFA2FB0302A2FB035253
:1017A800C2F34212C2F343120901114389B22181E3
:1017B80005B0F0BD00234FF416510C2201604281A0
:1017C8008380C38003818381704700BF30B40A8857
:1017D8004D888C88038AC9882A43224323F470637E
:1017E8000A431B0492B21B0C1343038230BC70479C
:1017F8000023038043808380C3807047838929B98D
:1018080023F400531B041B0C838170479BB243F4E1
:1018180000538381704700BF038B03F47F43038326
:10182800038B9BB219430183704700BF838919B9A1
:10183800C3F30E03838170476FEA43436FEA534350
:101848009BB28381704700BF838A29B923F4006360
:101858001B041B0C838270479BB243F40063838292
:10186800704700BFC1F30801818070478088C0F3CA
:1018780008007047038A23F00F031B041B0C038224
:10188800038A9BB219430182704700BF838929B933
:1018980023F002031B041B0C838170479BB243F0A7
:1018A80002038381704700BF838923F400631B040C
:1018B8001B0C838183899BB219438181704700BFC8
:1018C800038A23F020031B041B0C0382038A9BB2A8
:1018D80019430182704700BF038A29B923F4804362
:1018E8001B041B0C038270479BB243F480430382A2
:1018F800704700BF83899BB243F00103838170471F
:10190800838A29B923F008031B041B0C83827047C0
:101918009BB243F008038382704700BF038BDBB29E
:101928000383038B9BB243EA01210183704700BF05
:10193800838A29B923F020031B041B0C8382704778
:101948009BB243F020038382704700BF838A29B982
:1019580023F010031B041B0C838270479BB243F0D7
:1019680010038382704700BF838A23F004031B049B
:101978001B0C8382838A9BB219438182704700BF04
:10198800838A29B923F002031B041B0C8382704746
:101998009BB243F002038382704700BF838A9BB2E5
:1019A8001AB923EA0101818270471943818270477D
:1019B80001F01F0310B4C1F342110124A14204FA3B
:1019C80003F308BF0C3003D002290CBF10301430C9
:1019D80004682AB924EA030303605DF8044B7047DE
:1019E800234303605DF8044B704700BF0388194226
:1019F8000CBF002001207047C94389B2018070479D
:101A0800C1F3421330B401F01F020124012B04FA80
:101A180002F416D0022B0CBF028A828A92B22240AC
:101A280003880125090A05FA01F19BB219420CBF86
:101A380000200120002A0CBF002000F0010030BC6B
:101A48007047828992B22240EAE700BF090A01235F
:101A580003FA01F1C94389B20180704781F000415E
:101A680002E000BF83F0004330B54FEA41044FEA7B
:101A7800430594EA050F08BF90EA020F1FBF54EA16
:101A8800000C55EA020C7FEA645C7FEA655C00F0B2
:101A9800E2804FEA5454D4EB5555B8BF6D420CDD83
:101AA8002C4480EA020281EA030382EA000083EA06
:101AB800010180EA020281EA0303362D88BF30BDA6
:101AC80011F0004F4FEA01314FF4801C4CEA1131FC
:101AD80002D0404261EB410113F0004F4FEA03335B
:101AE8004CEA133302D0524263EB430394EA050FE6
:101AF80000F0A780A4F10104D5F1200E0DDB02FA55
:101B08000EFC22FA05F2801841F1000103FA0EF2E8
:101B1800801843FA05F359410EE0A5F120050EF1AE
:101B2800200E012A03FA0EFC28BF4CF0020C43FADF
:101B380005F3C01851EBE37101F0004507D54FF0EC
:101B4800000EDCF1000C7EEB00006EEB0101B1F53C
:101B5800801F1BD3B1F5001F0CD349085FEA300082
:101B68004FEA3C0C04F101044FEA445212F5800F8D
:101B780080F09A80BCF1004F08BF5FEA500C50F12A
:101B8800000041EB045141EA050130BD5FEA4C0C0D
:101B9800404141EB010111F4801FA4F10104E9D196
:101BA80091F0000F04BF01460020B1FA81F308BF8D
:101BB8002033A3F10B03B3F120020CDA0C3208DD59
:101BC80002F1140CC2F10C0201FA0CF021FA02F134
:101BD8000CE002F11402D8BFC2F1200C01FA02F1A4
:101BE80020FA0CFCDCBF41EA0C019040E41AA2BFC9
:101BF80001EB0451294330BD6FEA04041F3C1CDA91
:101C08000C340EDC04F11404C4F1200220FA04F0B0
:101C180001FA02F340EA030021FA04F345EA03015A
:101C280030BDC4F10C04C4F1200220FA02F001FA1C
:101C380004F340EA0300294630BD21FA04F029469E
:101C480030BD94F0000F83F4801306BF81F4801137
:101C58000134013D4EE77FEA645C18BF7FEA655CAA
:101C680029D094EA050F08BF90EA020F05D054EA7C
:101C7800000C04BF1946104630BD91EA030F1EBF81
:101C88000021002030BD5FEA545C05D14000494185
:101C980028BF41F0004130BD14F580043CBF01F578
:101CA800801130BD01F0004545F0FE4141F470015E
:101CB8004FF0000030BD7FEA645C1ABF1946104639
:101CC8007FEA655C1CBF0B46024650EA013406BF3A
:101CD80052EA033591EA030F41F4002130BD00BFF9
:101CE80090F0000F04BF0021704730B54FF48064B6
:101CF80004F132044FF000054FF0000150E700BF37
:101D080090F0000F04BF0021704730B54FF4806495
:101D180004F1320410F0004548BF40424FF0000182
:101D28003EE700BF42004FEAE2014FEA31014FEAC5
:101D380002701FBF12F07F4393F07F4F81F0605114
:101D4800704792F0000F14BF93F07F4F704730B583
:101D58004FF4607401F0004521F0004120E700BF16
:101D680050EA010208BF704730B54FF000050AE09D
:101D780050EA010208BF704730B511F0004502D59E
:101D8800404261EB41014FF4806404F132045FEAA0
:101D9800915C3FF4DCAE4FF003025FEADC0C18BF45
:101DA80003325FEADC0C18BF033202EBDC02C2F13B
:101DB800200300FA03FC20FA02F001FA03FE40EACD
:101DC8000E0021FA02F11444C1E600BF70B54FF0CD
:101DD800FF0C4CF4E06C1CEA11541DBF1CEA1355AF
:101DE80094EA0C0F95EA0C0F00F0DEF82C4481EA17
:101DF800030621EA4C5123EA4C5350EA013518BF37
:101E080052EA033541F4801143F4801338D0A0FB23
:101E180002CE4FF00005E1FB02E506F00042E0FBD0
:101E280003E54FF00006E1FB03569CF0000F18BFD6
:101E38004EF0010EA4F1FF04B6F5007F64F540747E
:101E480004D25FEA4E0E6D4146EB060642EAC62111
:101E580041EA55514FEAC52040EA5E504FEACE2E7E
:101E6800B4F1FD0C88BFBCF5E06F1ED8BEF1004F81
:101E780008BF5FEA500E50F1000041EB045170BDFD
:101E880006F0004646EA010140EA020081EA030141
:101E9800B4EB5C04C2BFD4EB0C0541EA045170BD3D
:101EA80041F480114FF0000E013C00F3AB8014F1B7
:101EB800360FDEBF002001F0004170BDC4F1000400
:101EC800203C35DA0C341BDC04F11404C4F1200581
:101ED80000FA05F320FA04F001FA05F240EA0200DC
:101EE80001F0004221F0004110EBD37021FA04F612
:101EF80042EB06015EEA430E08BF20EAD37070BDCC
:101F0800C4F10C04C4F1200500FA04F320FA05F02A
:101F180001FA04F240EA020001F0004110EBD3702C
:101F280041F100015EEA430E08BF20EAD37070BD9C
:101F3800C4F1200500FA05F24EEA020E20FA04F375
:101F480001FA05F243EA020321FA04F001F0004124
:101F580021FA04F220EA020000EBD3705EEA430E95
:101F680008BF20EAD37070BD94F0000F0FD101F0C4
:101F78000046400041EB010111F4801F08BF013CFD
:101F8800F7D041EA060195F0000F18BF704703F03B
:101F98000046520043EB030313F4801F08BF013DC2
:101FA800F7D043EA0603704794EA0C0F0CEA13557E
:101FB80018BF95EA0C0F0CD050EA410618BF52EA38
:101FC8004306D1D181EA030101F000414FF000003E
:101FD80070BD50EA410606BF1046194652EA43064C
:101FE80019D094EA0C0F02D150EA013613D195EAC0
:101FF8000C0F05D152EA03361CBF104619460AD108
:1020080081EA030101F0004141F0FE4141F4700111
:102018004FF0000070BD41F0FE4141F4780170BD01
:1020280070B54FF0FF0C4CF4E06C1CEA11541DBF66
:102038001CEA135594EA0C0F95EA0C0F00F0A7F868
:10204800A4EB050481EA030E52EA03354FEA013195
:1020580000F088804FEA03334FF0805545EA1313A8
:1020680043EA12634FEA022245EA111545EA106570
:102078004FEA00260EF000419D4208BF964244F107
:10208800FD0404F5407402D25B084FEA3202B61A26
:1020980065EB03055B084FEA32024FF480104FF4FA
:1020A800002CB6EB020E75EB030E22BFB61A75466E
:1020B80040EA0C005B084FEA3202B6EB020E75EB01
:1020C800030E22BFB61A754640EA5C005B084FEA69
:1020D8003202B6EB020E75EB030E22BFB61A754636
:1020E80040EA9C005B084FEA3202B6EB020E75EB41
:1020F800030E22BFB61A754640EADC0055EA060E02
:1021080018D04FEA051545EA16754FEA06164FEA44
:10211800C30343EA52734FEAC2025FEA1C1CC0D1F0
:1021280011F4801F0BD141EA00014FF000004FF07D
:10213800004CB6E711F4801F04BF01430020B4F13E
:10214800FD0C88BFBCF5E06F3FF6AFAEB5EB030CF6
:1021580004BFB6EB020C5FEA500C50F1000041EBF3
:10216800045170BD0EF0004E4EEA113114EB5C04C0
:10217800C2BFD4EB0C0541EA045170BD41F4801193
:102188004FF0000E013C90E645EA060E8DE60CEA9B
:10219800135594EA0C0F08BF95EA0C0F3FF43BAFB8
:1021A80094EA0C0F0AD150EA01347FF434AF95EA6F
:1021B8000C0F7FF425AF104619462CE795EA0C0F53
:1021C80006D152EA03353FF4FDAE1046194622E720
:1021D80050EA410618BF52EA43067FF4C5AE50EAFA
:1021E80041047FF40DAF52EA43057FF4EBAE12E7EA
:1021F8004FF0FF3C06E000BF4FF0010C02E000BFCB
:102208004FF0010C4DF804CD4FEA410C7FEA6C5CAD
:102218004FEA430C18BF7FEA6C5C1BD001B050EA50
:10222800410C0CBF52EA430C91EA030F02BF90EA3B
:10223800020F0020704710F1000F91EA030F58BFFA
:10224800994208BF90422CBFD8176FEAE37040F05C
:10225800010070474FEA410C7FEA6C5C02D150EAFA
:10226800013C07D14FEA430C7FEA6C5CD6D152EAB5
:10227800033CD3D05DF8040B704700BF844610467A
:1022880062468C461946634600E000BF01B5FFF779
:10229800B7FF002848BF10F1000F01BD4DF808ED49
:1022A800FFF7F4FF0CBF012000205DF808FB00BF1A
:1022B8004DF808EDFFF7EAFF34BF012000205DF874
:1022C80008FB00BF4DF808EDFFF7E0FF94BF0120C1
:1022D80000205DF808FB00BF4DF808EDFFF7CEFFC2
:1022E80094BF012000205DF808FB00BF4DF808ED01
:1022F800FFF7C4FF34BF012000205DF808FB00BFD2
:102308004FEA4102B2F1E04324BFB3F5001CDCF10F
:10231800FE5C0DD901F0004C4FEAC0024CEA507047
:10232800B2F1004F40EB830008BF20F00100704776
:1023380011F0804F21D113F13872BCBF01F0004079
:10234800704741F480114FEA5252C2F11802C2F1AB
:10235800200C10FA0CF320FA02F018BF40F001002C
:102368004FEAC1234FEAD32303FA0CFC40EA0C00DE
:1023780023FA02F34FEA4303CCE77FEA625307D11B
:1023880050EA01331EBF4FF0FE4040F44000704752
:1023980001F0004040F0FE4040F40000704700BFEC
:1023A8004FEA410212F5001215D211D56FF4787375
:1023B800B3EB625212D94FEAC12343F0004343EA18
:1023C800505311F0004F23FA02F018BF40427047F3
:1023D8004FF00000704750EA013005D111F000407D
:1023E80008BF6FF0004070474FF00000704700BF13
:1023F8004BB942B9002908BF002802D04FF0FF317D
:10240800084600F037B882B0EC462DE9005000F0DD
:102418001BF8DDF804E002B00CBC7047F8B51646AE
:1024280004460D461F4600F027F806FB01F300FBA3
:102438000737A6FB0023FB18A21A65EB0303069CCB
:10244800C4E90023F8BD00BFF8B5164604460D469A
:102458001F4600F06FF900FB07F7A0FB062306FBF9
:102468000177FB18A21A65EB0303069CC4E9002355
:10247800F8BD00BF704700BF00292DE9F00F1D46C9
:10248800C0F29D800024002DC0F2948080460F4643
:1024980094461E46E3BB8A4255D9B2FA82F747B141
:1024A800C7F1200520FA05F601FA07F1BA403143D1
:1024B800B840170CB1FBF7F6030C1FFA82FC07FBB8
:1024C80016110CFB06F543EA01439D4208D9711E1B
:1024D8009B1880F013819D4240F21081023E9B18A8
:1024E800591BB1FBF7F507FB151380B20CFB05FC74
:1024F80040EA03418C4507D96B1E8A1880F0008199
:10250800944540F2FD80023D45EA0641002503E07E
:102518008B420CD9002529460A462B4614B1524253
:1025280063EB430310461946BDE8F00F7047B3FA52
:1025380083F5002D40F087808B4201D38242EAD890
:1025480000250121E8E712B90126B6FBF2F2B2FA3A
:1025580082F6002E39D18E1A130C1FFA82FC01253F
:10256800B6FBF3F703FB17614FEA10490CFB07F8BA
:1025780049EA0146B04506D9791EB61802D2B045D7
:1025880000F2D3800F46C8EB0606B6FBF3F103FB57
:10259800116380B20CFB01FC40EA03439C4506D959
:1025A8004E1E9A1802D2944500F2C280314641EA82
:1025B8000741B1E7E443524263EB430366E7404215
:1025C80061EB41014FF0FF345DE7B240C6F12009ED
:1025D80021FA09F720FA09F5130C01FA06F1B7FBFD
:1025E800F3F845EA01091FFA82FC03FB18774FEA62
:1025F80019410CFB08F541EA0747B040BD420AD92A
:10260800BF1808F1FF3680F08E80BD4240F28B8003
:10261800A8F10208BF18791BB1FBF3F503FB1517E6
:102628001FFA89F90CFB05F649EA07418E4206D9DB
:102638006F1E891871D28E426FD9023D89188E1B80
:1026480045EA08458CE7C5F1200122FA01F306FAAC
:1026580005F61E4327FA01F24FEA164907FA05F76D
:1026680020FA01F1B2FBF9F80F433B0C1FFA86FA86
:1026780009FB18220AFB08FB43EA024293450CFABD
:1026880005FC08D9921908F1FF314AD2934548D977
:10269800A8F102089219CBEB0203B3FBF9F109FB8D
:1026A8001132BFB20AFB01FA47EA02439A4506D93A
:1026B8004A1E9B1933D29A4531D902399B1941EAEE
:1026C80008410F0C1FFA8CF808FB07F68AB24FEA8C
:1026D8001C4C08FB02F80CFB026202EB18420CFBD4
:1026E80007FC964288BF0CF5803CCAEB03030CEB51
:1026F800124C63450ED305D000250DE70E46EFE6D4
:102708001D4601E71FFA88F800FA05F008EB0245B4
:10271800A842F1D201390025FEE63D468FE7114671
:10272800CDE78846B7E7B04675E7023FB6182AE70F
:1027380002393CE72DE9F007144605460E46002B02
:102748003DD18A4249D9B2FA82F747B1C7F120018F
:1027580020FA01F206FA07F6BC401643BD40220CE7
:10276800B6FBF2F02F0CA1B202FB106601FB00F3DE
:1027780047EA0646B34208D9471E361980F0F88062
:10278800B34240F2F58002383619F61AB6FBF2F376
:1027980002FB1362ADB201FB03F145EA024291422A
:1027A80007D95E1E121980F0E580914240F2E2805E
:1027B800023B43EA00400021BDE8F00770478B4226
:1027C80043D8B3FA83F4002C42D18B4202D382421D
:1027D80000F2DF8000210120EEE712B90127B7FBE4
:1027E800F2F4B4FA84F2002A40F088800A1B230C21
:1027F800A7B20121B2FBF3F603FB16224FEA154CF0
:1028080007FB06F04CEA0242904207D9121906F17A
:10281800FF3C02D2904200F2CE806646121AB2FB0A
:10282800F3F003FB1023ADB207FB00F745EA0343BF
:102838009F4207D9421E1B1980F09E809F4240F29A
:102848009B80023840EA0640B6E700210846B3E715
:10285800C4F1200622FA06F503FA04F32B434FEAE3
:10286800134C21FA06F501FA04F120FA06F6B5FB35
:10287800FCF746EA010A1FFA83F80CFB17554FEAE2
:102888001A4108FB07F941EA0545A94502FA04F28D
:1028980003D97E1EED187FD33746C9EB0501B1FB7E
:1028A800FCF60CFB16151FFA8AFA08FB06F84AEA2A
:1028B8000541884503D9751EC91873D32E4646EAC3
:1028C8000746370C1FFA82FC0CFB07F5120CB3B253
:1028D8000CFB03FC02FB035303EB1C4302FB07F254
:1028E8009D4288BF02F58032C8EB010102EB13421A
:1028F80091424BD342D0304600215DE79440C2F16B
:10290800200521FA05F6230C20FA05F701FA02F151
:10291800B6FBF3FC39430D0CA7B203FB1C6645EA72
:10292800064607FB0CF8B04500FA02F508D9361937
:102938000CF1FF303DD2B0453BD9ACF1020C361951
:10294800C8EB0602B2FBF3F003FB10268AB242EA98
:10295800064207FB00F1914206D9461E121926D2FB
:10296800914224D902381219521A40EA0C4141E71F
:1029780038460AE733461CE7104663E71FFA8CFC23
:1029880000FA04F00CEB03439842B4D2701E002105
:1029980012E7214620460FE7A9457FF67DAF023FA3
:1029A800ED187AE7884589D9023EC91887E7304685
:1029B800DAE78446C4E7023E12192FE7F8B5FDF7B7
:1029C8004DFC06220221002340F20F10FDF7E0FE25
:1029D8000025CF20FDF7CEFE104E11482946FEF700
:1029E80031F8C4F2020500220A272B69D807FCD562
:1029F80037603468002CFCD12869C107F5D53AB195
:102A0800CF20FDF7B7FE22462969CB07FCD4ECE7B7
:102A1800AF20FDF7AFFE0122F6E700BFC40C00208F
:102A280089010008002100F004B80D4B5B584350A1
:102A380004310C480C4B42189A42FFF4F6AF0B4A8B
:102A480000F003B8002342F8043B094B9A42FFF414
:102A5800F9AFFDF7ADFC00F0EFFEFFF7AFFF7047F1
:102A680030AD000800000020E8080020E808002039
:102A7800D00C0020FFF7FEBF10EE103A23F0004103
:102A8800CA0D7F3A162A1BDC002A10EE100A1DDB3D
:102A98004FF6FF71C0F27F0141FA02F119420ED0E0
:102AA800DFED177A30EE270AB5EEC00AF1EE10FA1C
:102AB80003DD002B17DB20EA010300EE103A704714
:102AC800B1F1FF4FFBD330EE000A7047DFED0C0A7F
:102AD80030EE201AB5EEC01AF1EE10FAEDDD002B3B
:102AE80007DB0023E9E74FF4000343FA02F28018FA
:102AF800E1E70022CBF68072002918BF1346DCE715
:102B0800CAF2497170B52DED048B9B4E8AB0B0EEB8
:102B1800409AF0EE608A00F0B5F996F9003001337A
:102B2800B0EE408A04D0B0EE680A00F0A1FD28B9E2
:102B3800B0EE480A0AB0BDEC048B70BDB0EE490A8D
:102B480000F096FD002836D1F5EE408AF1EE10FA35
:102B5800EED18A490890012319EE100A00930191D9
:102B6800FFF7E0F8CDE9020118EE900AFFF7DAF86E
:102B7800CDE904010021002096F90030C3F6F07178
:102B880041EC100B5A1C8DED060B0DD0022B0BD00F
:102B9800684600F0C9FC002800F0AC80089818B11D
:102BA80006F0AEFF08990160DDE90601FFF7A8FB12
:102BB80008EE100ABCE7B5EE409AF1EE10FA29D1FA
:102BC800F5EE408AF1EE10FA63D16C4B0122002138
:102BD80019EE100A009201930891FFF7A3F8CDE9C6
:102BE800020118EE900AFFF79DF8CDE904010020D4
:102BF800002141EC160B96F900208DED066B002A9A
:102C0800C6D000210020C3F6F07141EC170B8DED02
:102C1800067BC9E7B0EE480A00F020FD044600280C
:102C28006DD0B5EE408AF1EE10FA81D1B0EE490AC6
:102C380000F014FD00283FF47BAFB0EE680A00F006
:102C48000DFD00283FF474AF4C4A0023042119EE0F
:102C5800100A019208930091FFF764F8CDE9020188
:102C680018EE900AFFF75EF896F90020CDE9040106
:102C78000020002141EC170B022A8DED067B76D04F
:102C8800684600F051FC002871D0089800288BD0C5
:102C980086E7B0EE680A00F0E1FC00283FF448AF90
:102CA800F5EEC08AF1EE10FA7FF542AF3349012301
:102CB800002219EE100A009308920191FFF732F8EA
:102CC800CDE9020118EE900AFFF72CF83378CDE928
:102CD800040100200021002B46D0CFF6F07141EC12
:102CE800140B022B8DED064B38D106F009FF21217C
:102CF8000160CAE706F004FF212202604EE7B0EE49
:102D0800490A00F0ABFC00288BD0B0EE680A00F04E
:102D1800A5FC002885D0B0EE480A00F0A9FC0028E0
:102D28002ED1164A0890012419EE100A0094019237
:102D3800FEF7F8FFCDE9020118EE900AFEF7F2FF60
:102D48003478CDE90401002000216CB102460B461D
:102D5800FFF766F9022CCDE90601C6D0684600F0F7
:102D6800E3FB002891D1C0E7CDE90601F6E706F0BC
:102D7800C7FE2221016088E72800002028AB000850
:102D88003F4A0894032319EE100A00930192FEF7B4
:102D9800C9FFCDE9020118EE900AFEF7C3FF96F9C4
:102DA8000030CDE90401EBB94FF6FF714FF06040F8
:102DB800C4F2EF7141EC120BB5EEC09AF1EE10FAC5
:102DC8008DED062B3AD496F90000022805D0684606
:102DD80000F0AAFB00287FF4E1AE06F091FE222164
:102DE8000160DBE600210020C7F6F07141EC100B12
:102DF800B5EEC09AF1EE10FA8DED060BE3D5F6EEBE
:102E0800007A68EEA70A10EE900AFEF78BFF0446D8
:102E18000D4645EC104B00F089FB2046294653EC43
:102E2800102BFFF73BFA0028CDD100210020CFF668
:102E3800F07141EC110B8DED061BC4E7F6EE001A9C
:102E480068EEA12A12EE900AFEF76CFF04460D46C2
:102E580045EC104B00F06AFB2046294653EC102B3A
:102E6800FFF71CFA0028AED14FF6FF714FF0604013
:102E7800CCF2EF7141EC130B8DED063BA3E700BFDD
:102E880028AB00082DE9F04710EE904A34F00047CF
:102E98002DED028B10EE905A10EE106A13D026F02A
:102EA8000048B8F1FF4F10EE109A06DD5E48BDEC01
:102EB800028BBDE8F04700F009BCB7F1FF4F0ADD0F
:102EC800B8F17E5FF2D14FF07E5400EE104ABDECAF
:102ED800028BBDE8F087002E59DB4FF0000AB7F1EE
:102EE800FF4F4DD0B7F17E5F64D0B5F1804F6DD004
:102EF800B5F17C5F00EE106A1ED000F0A7FBB8F1B8
:102F0800FF4F22D0B8F1000F1FD0B8F17E5F1CD060
:102F18004FEAD970431E5AEA03027BD0B7F19A4FA1
:102F280040F388804FF6F770C3F67F70804518DC51
:102F3800002D1EDB0024C8E7B9F1000FDDDBBDEC76
:102F4800028BBDE8F04700F08DBA002DBCBFF7EE4C
:102F5800004A84EE800AB9F1000F3EDB10EE104AF9
:102F6800B3E70721C3F68071884540F31782002D27
:102F7800E0DDDFED2E2A22EEA20A10EE104AA4E7C9
:102F8800B8F17E5F9FD01CDD002D9EDAD2E7B7F145
:102F9800974F13DAB7F17E5F09DBFB15C3F1960093
:102FA80047FA00F202FA00F1B94200F096814FF0B8
:102FB800000A97E7002D1CDB344686E74FF0020A2B
:102FC8008DE7002DB6DA84F000447EE703EE906AC0
:102FD80063EEA31A11EE904A77E7A8F17E585AEAF1
:102FE80008080FD130EE401A81EE013A13EE104A6C
:102FF8006BE702EE106AB7EE004AC4EE025A15EE0D
:10300800904A62E7BAF1010FA8D1F1EE400A10EE3A
:10301800904A5AE706EE906A76EEE67A87EEA75A65
:1030280015EE104A51E700BF80AB0008CAF249719B
:103038000000804BB8F5000F80F257815FED047AED
:1030480020EE270A6FF0170710EE108A28F07F424B
:103058004CF2714022F400024FEAE856C0F21C001C
:103068007F3E82423E4442F07E5140F33B814BF228
:10307800D637C0F25D07BA4240F38C810020013692
:10308800A1F500010246DD4F9200BF1804EE901A28
:1030980097ED005A75EE240AF7EE003A83EEA01A6F
:1030A800491041F0005101F580214018D44934EE0F
:1030B800C56ADFEDD45A66EE016ADFEDD31A26EE53
:1030C800A67A03EE100A47EE251A88189FEDCF4A14
:1030D800CF4901EE874A891816EE902A9FEDCD2A2E
:1030E80022F47F6222F00F0202EE902A04EE072AF1
:1030F80033EE458A02EEC36ADFEDC77A34EEC80ABA
:1031080042EE077A00EE626ADFEDC44A47EE874A6C
:1031180026EE015A76EEA20A67EE073A20EE851AE5
:1031280003EEA41A22EEA23AB0EE086A73EE061A6B
:1031380090ED000A31EE817AD1ED004A17EE102A9F
:1031480022F47F6222F00F0204EE102A74EE465A2F
:1031580022EE842A75EEC32A9FEDB13A31EE628AD7
:1031680068EE266A45EE046A9FEDAE4A72EE267A4C
:1031780005EE106A17EE900A20F47F6121F00F0225
:1031880003EE902A33EEC21A9FEDA72A36EEC17AD3
:1031980063EE831A67EE045A43EE825AF8EEC50AC4
:1031A80075EE802A31EEA28A38EE240A70EE206A83
:1031B80016EE900A20F47F6121F00F0207EE902AA4
:1031C80037EEE05A75EE644A74EEE10A72EEE03AC0
:1031D80025F47F6525F00F0500EE904A01EE105AA0
:1031E80006EE102A30EEC13A60EEA33A43EE063AF4
:1031F80066EE011A0AF1FF3A33EEA14A5AEA030AC7
:1032080014EE103ABFEE007AB7EE008A08BFB0EEAF
:10321800478A002B23F0004440F3A580B4F1864F81
:1032280070DC64D0B4F17C5F75DC0023184614EEC2
:10323800102A22F47F6424F00F0104EE901A74EE31
:10324800E10A9FED7A3A33EEE01A9FED796A64EE6F
:10325800833A41EE063ADFED771A24EEA14A9FED54
:10326800760A34EE232ADFED755A22EE027ADFED74
:10327800742A57EE005ADFED736A45EE872ADFEDB0
:10328800727A52EE876AF0EE424A46EE877A32EE5A
:10329800445A47EEC74AB0EE003A73EEC50A22EE2A
:1032A800241A74EEC33A42EE200A81EE236A76EEBF
:1032B800601A31EEC24AB7EE002A32EE440A10EE26
:1032C800102AD318B3F5000FC0F2958000EE103A1B
:1032D80028EE008A18EE104AF7E502F00103C3F160
:1032E800020AFFE500200246CDE60027AEE6DFED44
:1032F800576A34EE610A73EEA67AF4EEC07AF1EEFC
:1033080010FA08DDDFED525A28EE258A28EE257AD4
:1033180017EE104AD9E5E2157E3A4FF4000040FA5C
:1033280002F5EA18C2F3C7514FF6FF70A1F17F0505
:10333800C0F27F0040FA05F022F07F4422EA000242
:1033480024F4000405EE102A44F40004C1F19601A7
:1033580044FA01F0002B71EEC51AB8BF4042C3050C
:1033680033EEA14A63E70021C4F216318C4208DC2F
:103378007FF458AF74EE615AF4EEE53AF1EE10FAC4
:10338800C9D89FED342A28EE028A68EE022A12EE86
:10339800904A9AE54FF40010012274E6B7EE001A3D
:1033A80030EE413A9FED1B6AF5EE001A03EE616AB2
:1033B800B6EE004A06EE434A23EE037A9FED262A2C
:1033C80067EE045A9FED258A65EE822A53EE082A95
:1033D8009FED230A63EE006A76EEA27A17EE902A32
:1033E80022F47F6020F00F0205EE102A75EE664A7F
:1033F80072EEE43AECE600F06FF969E740AB0008DA
:1034080038AB000842F1533E55326C3E05A38B3E63
:1034180030AB0008ABAAAA3EB76DDB3E9A99193FBC
:103428000038763F4F38763FA0C39D368CBEBF35F7
:103438001872313F0072313F4CBB31330EEADD3533
:1034480055B38A38610B363BABAA2A3E3CAA3833BF
:10345800CAF249716042A20D3BAAB83F70A5EC368A
:1034680000AAB83F10EE103A23F00042B2F1FF4F25
:10347800F0B449D2002A45D0002B4EDBD915B2F55D
:10348800000F09D213F400044CD15B000134180278
:10349800FBD5C4F10100091823F07F4525F4000687
:1034A800A1F17F07F90746F4000248BF5200530014
:1034B8004FF0807400267F109C42304627DD5B0069
:1034C8004FF400021824851851089D4204F1FF3476
:1034D80002DCA8185B1BB6185B0042189A4202DC93
:1034E8009B1A501876185B004A08013CEBD113B1BF
:1034F80006F001017618701000F17C5606EBC756ED
:1035080000EE106AF0BC704700EE000AFAE74FF0D0
:10351800007003F17F432646D1E730EE400A80EE83
:10352800000AEFE70120B6E700207047F0B553EC3A
:10353800102BC3F30A54A4F2FF31DE0F132983B012
:10354800184634DC002952DB4FF6FF70C0F20F003A
:1035580040FA01F000EA0304144326D0450805EABE
:1035680003073A430BD04FF4802023EA050340FABF
:1035780001F013290CBF4FF00042002203431D46FF
:10358800314B03EBC606D6E900672B463046394671
:103598001446FEF769FACDE90001DDE9000132467B
:1035A8003B46FEF75FFA41EC100B03B0F0BD332940
:1035B8000ADDB1F5806FF8D151EC100B0B46FEF720
:1035C80053FA41EC100BF0E7A4F213444FF0FF302C
:1035D80020FA04F01042E8D045081542CFD04FF049
:1035E800804722EA050247FA04F42243C7E723F09A
:1035F800004151EA0203D8D020F07F4424F470053A
:10360800114C2A43514204EBC605D5E90045114344
:1036180053EC102B0B0B03F40021400C41EA404300
:1036280020462946FEF720FACDE900012B46DDE9C0
:1036380000012246FEF716FA21F0004343EAC6715C
:1036480041EC100BB1E700BF48AB000810EE102AA0
:1036580022F0004300EE103A704700BF10EE103A17
:1036680023F00040B0F1FF4FACBF002001207047AD
:1036780010EE103A0BB902207047B3F1004FFAD0A0
:10368800A3F500016FF00142914201D80420704770
:1036980003F1FF419142F9D94FF6FE72591EC0F26B
:1036A8007F02914201D80320704703F1004101399C
:1036B8009142F8D9B3F1FF4F05D013F5000F14BFAD
:1036C8000020012070470120704700BF9FED010ACC
:1036D800704700BF0000C07F08B510EE103A33F005
:1036E80000422DED028B11D0B2F1FF4F11D2B2F58D
:1036F800000F11D3D10D0A18FE2A2FDC002A1BDD7A
:1037080023F0FF4040EAC25200EE102ABDEC028BC3
:1037180008BD30EE000AF9E743F6B043CFF6FF7371
:10372800DFED1C7A984220EE270A22DB10EE103AD1
:10373800C3F3C7511939DEE712F1160F1EDA4CF23E
:10374800503398420ADC9FED148AF0EE400AB0EE3E
:10375800480A00F027F820EE080AD7E79FED0F8AFD
:10376800F0EE400AB0EE480A00F01CF820EE080A15
:10377800CCE7DFED090A20EE200AC7E7193223F06B
:10378800FF4040EAC2519FED060A07EE101A27EEE5
:10379800000ABBE70000004C6042A20DCAF2497162
:1037A8000000003310EE101A10EE900A21F00043CA
:1037B80000F0004242EA030100EE101A704700BF11
:1037C80010B440F25843C2F20003044618680A468F
:1037D800214610BC00F000B810B501FB02F100F062
:1037E80085F8044668B150F8042C22F003010A1F3A
:1037F800242A18D8132A06D80346002018605860CF
:103808009860204610BD00231B2A036043600FD92F
:10381800242A8360C36005BF0361436100F110037C
:1038280000F11803E9E7002100F00EFB204610BD67
:1038380000F10803E1E700BFF8B5204F204C381B22
:10384800871017D07A1E2368012502F001069847D1
:10385800AF420FD02EB154F8041F02258847AF425B
:1038680008D0606880470235A268261D9047083452
:10387800AF42F6D1134F144CFCF786FD3B1B9F104B
:1038880018D07D1E216805F0010601258847AF4242
:1038980011D02EB154F8040F02258047AF420BD047
:1038A800626890470235A368261D98470834AF42DE
:1038B800F6D1F8BDF8BDF8BDF8BD00BF30AD0008C1
:1038C80030AD000830AD000830AD000840F2584374
:1038D800C2F200030146186800F008B840F25843E5
:1038E800C2F200030146186803F00EBC2DE9F04F40
:1038F80001F10B05162D83B0064627D935F00705CB
:1039080027D4A94225D8304600F034FBB5F5FC7F12
:1039180023D2BA4F4FEAD50C07EBCC02D4689442B5
:1039280000F0DE816368E268A16823F003002318D1
:10393800CA605868916040F001025A60304600F051
:103948001BFB0834204603B0BDE8F08F1025A942C0
:10395800D9D90C2434600024F4E75FEA552C00F030
:103968008B80BCF1040F00F255814FEA951707F1DF
:10397800380E4FEA4E01A14F07EB8101CC68A142F6
:1039880005D10CE0002A7CDAE468A14207D063681C
:1039980023F00300421B0F2AF4DD0EF1FF3E0EF167
:1039A800010C964B3C6903F1080E744500F07581D3
:1039B800616821F003014A1B0F2A00F35B81002A8A
:1039C800C3F814E0C3F810E069DAB1F5007F80F0BD
:1039D8002F81CA0803EBC2014FF00109921009FABE
:1039E80002F95A688868E16049EA0209A060C3F8E8
:1039F80004908C60C46001204FEAAC0400FA04F023
:103A0800484556D819EA000F07D12CF0030C40009E
:103A180019EA000F0CF1040CF9D007EBCC094C465D
:103A2800E046E3689C4207D13AE1002A80F26281CD
:103A3800DB689C4200F03481596821F003014A1B7D
:103A48000F2AF2DD1C465919D86854F808CF8A5055
:103A580045F0010542F00102CCF80C00C0F808C09E
:103A68005D6079613961C1F80CE0C1F808E04A602D
:103A7800304600F081FA65E74FEAD50E4FEA4E016D
:103A880079E72218E3685068A16840F001005060A7
:103A9800CB609960304600F06FFA083452E761183D
:103AA80030464B6843F001024A6000F065FA08347A
:103AB80048E7BC68606820F00309A94504D3C5EB52
:103AC80009030F2B00F38D804D4A4E4B116818687F
:103AD800013104EB090B05EB000300F05A8103F5F3
:103AE80080500F3020F47F6121F00F0C6146304682
:103AF8008DE80410FCF746FDB0F1FF3F80469DE8D5
:103B0800041000F05281834500F20F81DFF800A114
:103B1800DAF80030C3456344CAF8003000F04A813F
:103B28001268013200F05781CBEB080B5B44CAF8EE
:103B3800003018F0070100F00B81C1F10800C1F551
:103B48008053804403F1080208EB0C010805030DBB
:103B5800C3EB020B30465946FCF714FD431C00F03A
:103B68004681C8EB00020BEB020141F00100DAF8D4
:103B78000030C7F808805B44BC42CAF80030C8F877
:103B8800040015D0B9F10F0F40F2F2806168A9F175
:103B98000C0222F00702A01801F0010C42EA0C0EF8
:103BA80005210F2AC4F804E04160816000F2178102
:103BB800154ABC681068834288BF1360134A1168AD
:103BC8008B4288BF1360636823F00300A842C5EBEB
:103BD800000301D30F2B04DC304600F0CDF900249C
:103BE800B0E6621943F0010145F001056560304611
:103BF8005160BA6000F0C0F90834A3E65C04002004
:103C0800680800207C0C0020780C0020740C002030
:103C1800800C0020BCF1140F7BD9BCF1540F00F2CA
:103C28008D804FEA153404F16E0E4FEA4E01A2E67C
:103C3800480A042872D9142800F2AE8000F15B0902
:103C48004FEA490207EB8200DFF8F081836883427C
:103C580000F081805A6822F00302914202D29B68E8
:103C68009842F7D1DA68D7F80490E260A360DC6084
:103C78009460C0E6611942F0010045F001056560F5
:103C8800596119614860C1F80CE0C1F808E08A5030
:103C9800304600F071F9083454E6D3F80490AAE6E7
:103CA80008F10108083418F0030F7FF4BAAE49464A
:103CB8001CF0030FA1F108040CF1FF3C00F0B080E8
:103CC8000968A142F4D07C684000A0423FF6F1AEFA
:103CD80000283FF4EEAE044200F0A780C4469CE6FC
:103CE80004F108036469A34208BF0CF1020C3FF415
:103CF80058AE17E659181C464868DB6854F8082F70
:103D080040F001004860D3609A60304600F034F912
:103D180018E60CF15B0E4FEA4E012CE64FEA9118BB
:103D280008F138094FEA49028CE7BC423FF4EEAE8D
:103D3800424CA468626822F0030047E7BCF5AA7FFA
:103D48001CD84FEAD53202F1770E4FEA4E0112E63F
:103D58004FF48052F8E6D8F804004FEAA90201218E
:103D680001FA02F242EA0009C8F804901A467CE710
:103D78000122C8F804204446002027E740F25453A3
:103D88009C4524D84FEA954000F17C0E4FEA4E013D
:103D9800F1E503F1100CA9E654282CD84FEA1132AA
:103DA80002F16E094FEA49024CE7BC68616821F0EC
:103DB80003000BE74FEA0B50010D00297FF4B0AE6A
:103DC800B8680CEB090141F001044460F0E6FC21FD
:103DD8004FF07E0ECFE51A48C0F80080A9E604F13E
:103DE8000801184C304603F08FF92368E0E60120FB
:103DF8004FF0000BBBE6B0F5AA7F06D84FEAD133E7
:103E080003F177094FEA49021CE740F254539842FC
:103E18000FD84FEA914000F17C094FEA490211E7B7
:103E28007C6824EA00047C604EE7400008F104083E
:103E380051E7FC224FF07E0904E700BF5C04002034
:103E480068080020800C0020F0B48407034600F0C6
:103E58008E80541E002A00F08880E507CEB211D467
:103E68001A46671E02F8016B1346154692070FD0D3
:103E7800002C7AD003F8016B9A073C461D4607D000
:103E8800013CEDE7034603F8016B9A071D46F7D19D
:103E9800032C52D9CEB246EA06270F2C47EA07432D
:103EA8002DD9A4F1100217460F2FC2F300162B606C
:103EB8006B60AB60EB6005F1100216D93EB1103FA4
:103EC800136053609360D36010320F2F0DD9203FD9
:103ED80002F11006136053609360D360136153615D
:103EE8009361D36120320F2FF1D8A4F1100222F090
:103EF8000F0204F00F041032032C15441DD9271F9C
:103F08003E462A46032E42F8043BC7F380070DD9E4
:103F180027B1043E032E42F8043B07D91746083E52
:103F280047F8043B53603A1D032EF7D8231F23F0AC
:103F38000302131D04F00304ED18B4B12B46C9B2F3
:103F480003F8011B2C19ED436219A34202F0010585
:103F58000BD01DB103F8011BA34206D01A4602F884
:103F6800011B5970531CA342F8D1F0BC7047054699
:103F780014468DE7704700BF704700BF0CB4F0B51A
:103F88009DB022AC6FF0004554F8042B02910E4608
:103F980023460495079502A94FF402774FF6FF755B
:103FA800ADF814700696ADF81650019400F030F88C
:103FB800029B00221A701DB0BDE8F04002B07047A5
:103FC8000EB470B59DB021AC40F2584354F8042BA0
:103FD800C2F200036FF000454FF402710646ADF8D7
:103FE80014100495079518680296234602A94FF6FF
:103FF800FF750696ADF81650019400F009F8029B7B
:1040080000221A701DB0BDE8704003B0704700BFB1
:104018002DE9F04FBFB0144606910C93089003F0B9
:1040280071F900680F9004F00FFB119006988389CE
:1040380003F080010AB200200021CDE9120122B16B
:1040480006980369002B01F0CC8200202EABDFF824
:1040580000950D900393219323902290A2461490EB
:1040680015900B901E469AF80040002C00F09C8199
:10407800252C00F099810AF1010501E0252904D0D9
:104088002C46013521780029F8D1CAEB04057DB109
:10409800229B239AC6F800A0591C5019072975605D
:1040A8002390229100F3648108360B9A50190B90E3
:1040B8002378002B00F0648100224FF0FF3194F840
:1040C80001800591099204F1010A8DF86320049298
:1040D80020202B210AF1010AA8F12003582B00F215
:1040E800BB82DFE813F0FD01B902B9020702B90289
:1040F800B902B902B902B902B902B3015002B90250
:104108003E010E02B902C702CE02CE02CE02CE0294
:10411800CE02CE02CE02CE02CE02B902B902B90256
:10412800B902B902B902B902B902B902B9028400E6
:104138008001B9028001B902B902B902B902490283
:10414800B902B9026D00B902B902B902B902B902DD
:104158005900B902B902DF01B902B902B902B902BC
:10416800B902B902B902B902B902B9023702880024
:1041780080018001800189028800B902B902AD027C
:10418800B902550271009002A602B9026302B9028F
:104198005D00B902B902BF01049D45F01004049402
:1041A800049B9D0600F191810499CC0641F1988009
:1041B8000C9A1568171D2C460C970025012312E050
:1041C800049A42F010050495049F17F0200340F06C
:1041D800FF80049C14F0100001F074800C9F3A1DBD
:1041E8003C680C92002500278DF8637017E0049D49
:1041F80045F010030493049FBF0640F1D7800C9D3F
:10420800EB1D23F00700D0E9002308300C9014467A
:104218001D46002A73F10000C0F235870123059975
:10422800002903DB049F27F08000049054EA05026C
:1042380040F0F383059A002A40F0EF83002B40F00A
:104248005986049BD90741F10E803EAF302007F80C
:10425800410D039AD41B0A94059C0A989DF8633073
:104268000E94A042B8BF204600220790109213B1C6
:10427800079B591C0791049B13F00200059002D07C
:1042880007998C1C0794049A12F0840B40F02A8238
:10429800099D079BED1A002D40F32482102D41F350
:1042A8000E82239A229BA549102431601691111978
:1042B8005A1CA5F1110E072A7460CEF3001323913E
:1042C800229200F372850836103D102D40F3FE81CE
:1042D8008BB101324AF6B4331031C0F60003072A15
:1042E80086E818002391229200F36E850836103D67
:1042F800102D40F3EB813346CDF85CB02E46BB461B
:10430800069D089F13E0083301324AF6B430103195
:10431800C0F60000103E072A83E81100239122927C
:1043280000F3C081103E0833102E40F3CA810132D9
:104338004AF6B4301031C0F60000072A83E81100AD
:1043480023912292DFDD3846294621AA04F0ACF9F0
:10435800E8B92399229A2EABD6E7099A0C935242D0
:104368000992049B43F0040204929AF80080B1E693
:104378000898069921AA04F097F940B92EAE94E658
:10438800239B23B10898069921AA04F08DF9069871
:1043980081890B9801F0400213B2002B18BF4FF02F
:1043A800FF303FB0BDE8F08F544681E60498C5065B
:1043B80000F15D8604994C0640F159860C9A0C9FD1
:1043C800B2F90040381DE51722462B460C9020E72D
:1043D8000C9BDD1D25F0070101F108000C90D1E9C7
:1043E80000450023FFE60C9CE51D25F0070101F1BF
:1043F80008000C900D684C682A462346284621463A
:1044080043EC102BCDE9120103F0F8FF012840F02E
:104418003B872846214600220023FDF749FF002854
:1044280041F04A829DF86330002704990E970324CF
:104438004348444F079421F080020A940024B8F1BD
:10444800470FD8BF07460492109410E70C9A0C9BAC
:1044580012680433002A0992FFF67FAF9AF80080A9
:104468000C9337E6384F1497049FB9061FD50C9C58
:10447800E01D20F00703D3E9004503F108010C9182
:104488000498C70740F1828454EA050200F07E844C
:10449800302240F002078DF864208DF8658004977B
:1044A8000223A0E6049F294DB9061495DFD4049C85
:1044B800E20600F1F1850498430640F1ED850C9B76
:1044C800191D1C880C910025DAE70C9CE31D23F0CC
:1044D800070101F108000C90D1E90045012382E6AB
:1044E8009DF86330002B40F007878DF863009AF839
:1044F8000080EFE5049B43F0010204929AF80080E3
:10450800E8E5544614F8018BB8F12A0F01F0D2827D
:10451800A8F130030022092B01F2FF8114F8018B66
:1045280002EB820203EB4202A8F13003092BA246F8
:10453800F4D942EAE2720592CEE500BFB4AB0008B6
:1045480060AB000864AB000884AB000870AB0008DF
:10455800A4AB00080C9F0C993C68012300200A1D9D
:104568008DF8630007930C928DF890400A9324AF5E
:1045780000220E9210927EE6049A42F008030493F9
:104588009AF80080A6E58DF863109AF80080A1E5F6
:10459800049CA10640F1B4860C990B9A0C980B6800
:1045A800D417011D1A605C600C915CE50C9D002419
:1045B8008DF863402F680435002F01F01481059AA7
:1045C800002A3846C1F257802146059A02F0B2FE09
:1045D800002801F07B8105990E94C01B88420A903F
:1045E80040F3E98721EAE170059907909DF8633067
:1045F8000C950A9110943AE6049B43F04002049209
:104608009AF8008066E50C9D0C992868049B0F1D9C
:10461800AA490C9743F002024FF07808044630206C
:104628008DF86580002504928DF8640014910223AA
:10463800D9E5049B43F0200204929AF8008049E5EA
:104648009AF80080B8F16C0F534600F00487049A7A
:1046580042F0100304933DE5B8F1000F3FF490AE2B
:104668000127002407970A978DF890808DF86340FA
:1046780024AF7DE7049A42F0800304939AF80080FF
:1046880028E552460023A8F1300512F8018BA8F15D
:10469800300403EB8303092C05EB43039246F2D95C
:1046A800099319E53846294621AA03F0FDFF002899
:1046B8007FF46DAE103E102E2EAB2399229A3FF751
:1046C80036AE5F46DDF85CB035461E46501C169B7C
:1046D8004C19072886E828002394229000F30F84B9
:1046E800083600E0239C9DF8631069B1229B581C92
:1046F800013401210DF163020728326071602394AF
:10470800229000F3FE820836059B63B12298411C73
:104718000234022319AA0729326073602394229174
:1047280000F3FA820836BBF1800F00F02D820E9D4F
:104738000A9AAD1A002D6FDD102D40F3FE852299DF
:104748005F48C6F800904FF0100B4A1CA5F1110CF9
:104758005C44072AC6F804B0059023942292CCF34F
:10476800001300F3A9820836103D102D49DD63B10E
:1047780001321034072A86E8000A2394229200F3B3
:10478800A9820836103D102D3BDD314620464646AD
:104798003C46DDF81880089F0DE0083101321030E2
:1047A800103D072A81E8000A2292239017DC103D69
:1047B8000831102D21DD01321030072A81E8000A66
:1047C80023902292E9DD3846414621AA03F06CFF86
:1047D80000287FF4DCAD2398229A2EA9DEE738461C
:1047E800414621AA03F060FF00287FF4D0AD103DB8
:1047F800102D2EA92398229ADDDCB04627460E46B6
:104808000446501C059B6419072886E82800239451
:10481800229000F36B820836049BDA0500F12881A8
:1048280022980A9A0A993760431CA418072B7160CA
:104838002394229300F3B0800836049A530740F17A
:10484800B980099D07982D1A002D40F3B380102DCB
:1048580040F3D587229BDFF86C804AF6B437C0F660
:1048680000073760591C1027A5F1110BE419072917
:104878007760CBF3001B2394229100F3C68308369C
:10488800103D102D40F3B680BBF1000F11D001315F
:104898004AF6B4301034C0F60000072986E88100D3
:1048A8002394229100F3D7830836103D102D40F34E
:1048B800A1803246DDF820B0069E18E084AB0008DF
:1048C800A4AB0008B4AB00080832411C4AF6B43067
:1048D8001034C0F60000103D072982E881002291BB
:1048E800239477DC103D0832102D40F38280481C59
:1048F8004AF6B4311034C0F60001072882E8820075
:1049080023942290E0DD5846314621AA03F0CCFEDC
:1049180000287FF43CAD239C22982EAAD5E70D9D54
:10492800012D40F37B84229B37605D1C01340121FB
:10493800072D71602394229500F37B840836119B20
:104948000F980135E418072D86E80900239422956D
:1049580000F37C840836DDE9120100220023FDF70C
:104968009DFC002840F0D7820D9A0137501E24186C
:1049780001353760072D70602394229500F38681F6
:1049880008361598013524181DAB072D3360706063
:10499800239422957FF750AF0898069921AA03F02F
:1049A80083FE00287FF4F3AC049A239C53072EAEB1
:1049B8003FF547AF0B980799099A9142ACBF401849
:1049C80080180B90002C40F06D81002422942EAEAC
:1049D800FFF749BB5846314621AA03F065FE002877
:1049E8007FF4D5AC103D102D2EAA239C22993FF7B9
:1049F8007EAF16464B1C2C19072BC6F80080756035
:104A080023942293D6DD0898069921AA03F04CFE38
:104A180000287FF4BCAC239CCCE7012B00F0A881D4
:104A2800022B0DF1B70C00F0878107234FEAD40E53
:104A380004EA03004EEA457BE90830305C460D463F
:104A4800C0B254EA050167468CF800000CF1FF3C3F
:104A5800ECD1049AD4073B4605D5302803D030243E
:104A6800674603F8014C039CE21B0A92FFF7F4BB6C
:104A7800B8F1650F7FF753AFDDE91201002200237B
:104A8800FDF70CFC002800F0AC812298A849431CD3
:104A980001340122072B316072602394229300F3C2
:104AA800518408361A980D9B984203DB0499CB076A
:104AB8007FF5C3AE229B11980F9A7060591C241879
:104AC800072932602394229100F37F8508360D9DD3
:104AD800013D002D7FF7B1AE102D40F3888222985A
:104AE8000D9AC6F800901027411CA2F1120EE41985
:104AF80007297760DFF83CB223942291CEF300189F
:104B080000F316860836103D102D40F37382B8F175
:104B1800000F0ED0013110340729C6F800907760D5
:104B28002394229100F311860836103D102D40F38E
:104B380061822046DDF82080069C10E00836591C6A
:104B48001030103D0729C6F8009077602291239015
:104B580000F31F810836103D102D40F3EC834B1CE9
:104B68001030072BC6F80090776023902293E5DD7C
:104B78004046214621AA03F097FD00287FF407ACA0
:104B88002398229B2EAEDAE7099D07982D1A002D4F
:104B98007FF7CDAD102D40F394862298654AC6F86C
:104BA80000904FF0100B0130A5F111035C44072869
:104BB800C6F804B0059223942290C3F3001300F3BF
:104BC80013830836103D102D48DD63B101301034D1
:104BD800072886E8000A2394229000F313830836F6
:104BE800103D102D3ADD21463246089C2E460346DC
:104BF800069D0DE00832431C1031103E072B82E859
:104C0800000A2293239117DC103E0832102E21DD72
:104C1800581C1031072882E8000A23912290E9DD08
:104C28002046294621AA03F03FFD00287FF4AFABB8
:104C3800239922982EAADEE72046294621AA03F0C6
:104C480033FD00287FF4A3AB103E102E2EAA239923
:104C5800229BDDDC35460C4616461846411C059B52
:104C68006419072986E828002394229100F3008319
:104C780008365CE52F4A05920135059BE419072D96
:104C880086E88800239422957FF77AAE08980699DB
:104C980021AA03F009FD00287FF479AB2EAE239CEE
:104CA800229D6EE60898069921AA03F0FDFC0028CB
:104CB8003FF48BAEFFF76BBB08980699029321AAC5
:104CC80003F0F2FC029B00287FF461AB2EAE239C1C
:104CD800229A49E50898069921AA03F0E5FC0028DC
:104CE8007FF455AB2EAE239C229A4BE50898069983
:104CF80021AA03F0D9FC00287FF449AB239C2EAEEF
:104D08008AE50898069921AA03F0CEFC00287FF4CA
:104D18003EAB239C2EAEF7E40898069921AA03F02F
:104D2800C3FC00287FF433AB239C2EAEFBE400BF0A
:104D3800A0AB0008A4AB0008DDF850E007960F21EF
:104D480004EA01060EEB060027092A0947EA05745A
:104D58000378154654EA050267468CF800300CF1D2
:104D6800FF3CEDD10399079EC81B0A90FFF774BA60
:104D7800002D08BF0A2C80F054813EAF303407F86C
:104D8800414D039BD91B0A91FFF766BA0223FFF72F
:104D98002ABA4046214621AA03F086FC00287FF45F
:104DA800F6AA2EAE23982299D5E60898069902937A
:104DB80021AA03F079FC029B00287FF4E8AA2EAE12
:104DC8002399229AFFF780BA0898069921AA03F036
:104DD8006BFC00287FF4DBAA2EAE2399229AFFF7FA
:104DE80086BA1A9D002D40F3B9820D9D10990D9A2F
:104DF8008D42A8BF0D46B818002D05900ADD229BEC
:104E08003760591C6419072975602394229100F3AF
:104E180083840836109A25EAE575551B002D40F362
:104E28004F81102D40F3788222999F4BC6F800904D
:104E38004FF010080131A5F1110E44440729C6F8B6
:104E480004800A9323942291CEF3001B00F3578425
:104E58000836103D102D40F36282BBF1000F0FD0D1
:104E6800013110340729C6F80090C6F8048023944D
:104E7800229100F377840836103D102D40F34F82BD
:104E88002046DDF820B0069C12E006F10802591C05
:104E98001030103D0729C2F80090C2F80480229112
:104EA80023901BDC02F10806103D102D40F30D8401
:104EB8004B1C1030072BC6F80090C6F804802390CE
:104EC8002293E2DD5846214621AA03F0EDFB002893
:104ED8007FF45DAA2398229B2EAAD8E7584621463C
:104EE80021AA03F0E1FB00287FF451AA2EAE2398F3
:104EF8002299D9E7059C2EAF0A94FFF7ADB9089817
:104F0800069921AA03F0D0FB00287FF440AA239C2D
:104F18002EAEFFF7E8BB0D9F013F002F7FF731ADA5
:104F2800102F7FF7A7AE0D985F4BC6F800904FF093
:104F380010080135A0F1120B4444072DC6F804806F
:104F4800059323942295CBF3001B00F3C083083606
:104F5800103F102F7FF790AEBBF1000F0FD0013537
:104F68001034072DC6F80090C6F8048023942295C3
:104F780000F3B9830836103F102F7FF77DAE214626
:104F8800DDF820B0069C10E0083601351031103FDE
:104F9800072DC6F80090C6F80480239122951ADCE4
:104FA8000836103F102F40F3638301351031072D69
:104FB800C6F80090C6F8048023912295E4DD58468F
:104FC800214621AA03F070FB00287FF4E0A9239969
:104FD800229D2EAED9E75846214621AA03F064FB4C
:104FE80000287FF4D4A92EAE2399229DD9E72299CF
:104FF800DFF8B4B0013164190729C6F800B075604C
:10500800239422917FF718ACC6E40898069921AA40
:1050180003F04AFB00287FF4BAA92EAE239C2299FC
:105028002EE40DF1B70B204629460A220023FDF78E
:10503800DFF930328BF80020204629460A22002367
:10504800FDF7D6F904460D4654EA05005F460BF114
:10505800FF3BE8D107E50898069921AA03F024FB4D
:1050680000287FF494A92EAE239C22991DE40C9964
:105078000C68E51722462B460F1D002A73F1000025
:105088000C97BFF6CBA82D22644265EB45058DF839
:1050980063200123FFF7C3B80C9A1568171D2C4627
:1050A8000C970025FFF7ECB9A4AB000808980699FF
:1050B80021AA03F0F9FA00287FF469A9239C2EAEEF
:1050C8001A9B0D9A10989342074472DB0499C907FA
:1050D8006FD4059D0D99ED1BC91AA942B8BF0D469D
:1050E800002D0ADD229A3760501C64190728756064
:1050F8002394229000F36983083625EAE5754D1B51
:10510800002D7FF79AAB102D7FF771AF229AC6F862
:1051180000901027511CA5F11108E41907297760A0
:10512800DFF850B323942291C8F3001800F34183A9
:105138000836103D102D7FF75DAFB8F1000F0ED087
:10514800013110340729C6F8009077602394229122
:1051580000F3A6830836103D102D7FF74BAF20468D
:10516800DDF82080069C0FE00836591C1030103DF1
:105178000729C6F8009077602291239028DC08362A
:10518800103D102D40F3D7804B1C1030072BC6F86C
:105198000090776023902293E6DD4046214621AABD
:1051A80003F082FA00287FF4F2A82398229B2EAEFF
:1051B800DBE722990F98119A3060A41811984A1CBD
:1051C800072A70602394229200F3D982083680E778
:1051D8004046214621AA03F067FA00287FF4D7A8A1
:1051E8002EAE23982299CBE708980699029321AA14
:1051F80003F05AFA029B00287FF4C9A82EAE239C1C
:105208002298DFE40898069921AA03F04DFA0028AD
:105218007FF4BDA82EAE239C2298E1E40499CA0726
:105228003FF581AB229A37600134551C0120FFF706
:10523800A1BB0898069921AA03F036FA00287FF442
:10524800A6A8239C229D2EAEFFF779BB0898069945
:1052580021AA03F029FA00287FF499A8239C229D0B
:105268002EAEFFF778BB05992EAF0A91FEF7F4BF73
:105278000898069921AA03F017FA00287FF487A84E
:10528800239C2EAEFFF753BA2A46234643EC102B35
:1052980003F0B4F8002840F0F1800327734A079719
:1052A800734F0E9004989DF86330B8F1470FD8BF3C
:1052B80017460E9A20F08004032104940A91109254
:1052C800FEF7D5BF049B13F0400300F0BD810346F1
:1052D8000C980C9D011D2C880C910025FEF783BFAE
:1052E8000498400640F1A7810C99081D0C880C9081
:1052F80001230025FEF777BF9AF80080FEF7EABE83
:10530800049BDA0640F1A8810C9A0B981368141DC7
:105318000C941860FEF7A7BE564822990A904B1CB9
:105328000A986419072B86E82100239422933FF7F3
:10533800BDAE0836C4E604465CE64E4B229A059399
:10534800FFF75FBA0898069921AA03F0ADF900287B
:105358007FF41DA8239C2EAEFFF7A4BB229A464BD0
:10536800501C013401210728336071602394229076
:1053780000F3468108362DB90D9A1AB90498C0076A
:105388007FF55BAA22980F9B119933606218431C22
:105398001199072B71602392229300F3C982083672
:1053A8006D42002D40F37F81102D40F3F4811024CD
:1053B8000133A5F1110C1219072BC6F8009074607F
:1053C800DFF8B0B023922293CCF3001800F3E08208
:1053D8000836103D102D40F3E081B8F1000F0ED0D3
:1053E80001331032072BC6F8009074602392229381
:1053F80000F32A830836103D102D40F3CE81304645
:10540800DDF820802E46069D10E00830013310326A
:10541800103E072BC0F8009044602392229300F3BB
:10542800FE800830103E102E40F38F820133103278
:10543800072BC0F80090446023922293E5DD404694
:10544800294621AA03F030F900287EF4A0AF239A58
:10545800229B2EA8DAE7049A93F8018042F02002F2
:105468000AF1010A0492FEF735BE00BF68AB0008D6
:105478006CAB0008A4AB0008A0AB0008059B013387
:1054880000F0CA80B8F1670F00F04C82B8F1470FFE
:1054980000F04882049B002C43F480701690C0F200
:1054A8006F8200210E91B8F1660F00F01C82B8F1EE
:1054B800460F00F07982B8F1650F00F04F82B8F11D
:1054C800450F00F04B82DDF814C02A4623461BA87E
:1054D8001CA943EC102B0090019162460221089808
:1054E800CDF808C01AAB00F093FCB8F1670F074677
:1054F800DDF808C002D0B8F1470F03D1049BD807E4
:1055080040F14382B8F1460F07EB0C0B00F0FE8127
:105518002846214600220023FCF7C0FEF0B91C9C57
:10552800A34540F2F5822346302103F8011BE043EE
:105538000BEB00025B451C9302F001000DD020B17B
:1055480001335B4561701C9307D01C4604F8011BAE
:105558005970631C5B451C93F7D19B46C7EB0B0145
:10556800B8F1670F0D9100F05D81B8F1470F00F0B9
:105578005981B8F1660F40F0C9821A9A002A40F39F
:105588009082059C002C40F06B820499CB0700F1B7
:10559800678222EAE27007900A9210920E9C002C11
:1055A80000F03A8116982D2100248DF8631004909C
:1055B8000E94FEF75DBE0A9B0C9523EAE3720792F0
:1055C8009DF863301094FEF752BE0898069921AAF8
:1055D80003F06AF800287EF4DAAE239C2EAEFFF7BB
:1055E80076BA40210898FEF781F9069908600861A3
:1055F800002800F08F82069A40265661FEF725BDE6
:105608000898069921AA03F04FF800287EF4BFAE47
:105618001A9D239C2EAEAEE6062705973AE740462C
:10562800294621AA03F040F800287EF4B0AE2EA83F
:10563800239A229BF6E60C9A1768131D0C933C4696
:1056480000250123FEF7CFBD0C990A680F1D1446EB
:1056580000250C97FEF7C7BD049A530640F1D48085
:105668000C9A0B991468101D0C902180FEF7FBBC56
:105678000C46FFF701BB02F0E7FF20EAE0710A9051
:105688000E9407919DF863300C951094FEF7EFBDCA
:105698000898069921AA03F007F800287EF477AE47
:1056A800239A229B2EAE0D99376054185A1C072A4C
:1056B8007160239422927FF7BFA8FFF76DB9A448C1
:1056C8002399229A1690FFF701B8044627E608980E
:1056D800069921AA02F0E8FF00287EF458AE2EAE03
:1056E800239C229D34E40898069921AA02F0DCFF45
:1056F80000287EF44CAE2EAE239C229D3BE40898F5
:10570800069921AA02F0D0FF00287EF440AE2EAE02
:10571800239C2299FFF79DBB0898069921AA02F0BD
:10572800C3FF00287EF433AE239C2EAEFFF772BB76
:105738000898069921AA02F0B7FF00287EF427AE40
:105748002EAE239C2299FFF7DEB90898069921AA64
:1057580002F0AAFF00287EF41AAE2EAE239C2299EE
:10576800FFF7E3B90898069921AA02F09DFF0028DF
:105778007EF40DAE2EAE239C2299FFF77DBB0898D0
:10578800069921AA02F090FF00287EF400AE1A9B29
:10579800239C2EAE9DE4DFF8C0B101335219072BCC
:1057A800C6F800B07560239222933FF771AF0836B0
:1057B80079E70898069921AA02F076FF00287EF476
:1057C800E6AD2EAE239C2299B3E40898069921AA47
:1057D80002F06AFF00287EF4DAAD1A9E0D9B239C26
:1057E800991B2EAE89E4059F0C95062F28BF062726
:1057F80027EAE7740A970794564FFEF7B9BE22992D
:10580800DFF84C81FFF7F6B80C980B9B0168041D74
:105818000C940B60FEF727BC169A9DF8633004922F
:10582800FEF725BD1A9AD11C134602DB059C94424B
:1058380028DAA8F10208013B002B1A938DF874802E
:10584800C0F251812B228DF87520092B00F3C080FE
:10585800303330208DF876008DF877301EAC1DAAD5
:105868000D980D9BA11A4418012B15910A9440F329
:105878003F810A9B5A1C22EAE27100200A92079192
:1058880010908BE60D998A426CDB0499C80700F1E9
:10589800008122EAE27007900A924FF067087CE6DE
:1058A8000898069921AA02F0FFFE00287EF46FAD41
:1058B8002EAE239C22994EE42D238DF86330FEF7FB
:1058C800B3BD254922980591FFF7C8B9059B059AEC
:1058D8000E9023EAE37407949DF863300C950A92BE
:1058E8001090FEF7C4BC2A4623461BA91CAF43EC04
:1058F800102B009101971AAB0898059A032100F024
:1059080087FA059B074600EB030B9C46387830283E
:1059180000F0AE801A9A9344FAE50022A246059256
:10592800FEF7DABB0598002808BF01200590B1E50D
:105938000898069921AA02F0B7FE00287EF427AD40
:105948001A9D239A229B2EAE2AE53546064624E761
:10595800B4AB000898AB0008A4AB0008059A02F1A4
:10596800010CB2E5002A0D98D4BFC2F1020301234D
:105978001B1823EAE3740A9307944FF067080CE6B0
:105988002D2704F100440E978DE5DDF870B0E5E5AC
:105998000898069921AA02F087FE00287EF4F7AC41
:1059A8002EAE239A229B14E52A4623461BAF1CA839
:1059B80043EC102B00970190059A089803211AAB25
:1059C80000F026FA059A074600EB020B94469DE77D
:1059D80046F267640DF18201C6F2666484FB032512
:1059E800DA17C2EBA50000EB80050A46A3EB4503D6
:1059F80003F130011170511E09280346EEDC3033E3
:105A08000DF18305D8B28D4202F8010C7BD9AC1A8E
:105A1800E4070DF1750113460DD513468DF8760090
:105A28000DF1760113F8010B05E013F8011B617005
:105A380013F8010B611C4C1CAB424870F5D13EAB0E
:105A4800C2EB4304F63C0AE70898069921AA02F03B
:105A58002BFE00287EF49BAC2EAE239A229BCAE430
:105A6800059B5C1C111921EAE1700A91079094E5E5
:105A78002846214600220023CDF808C0FCF70EFC7A
:105A8800DDF808C000287FF445AFCCF101021A9276
:105A980041E7531C23EAE3740A9307944FF067081D
:105AA8007BE50598C0B9049BDC0715D4012407944D
:105AB8000A9472E50C9B9AF801801A680C9B05926F
:105AC800059A0433002A0C93A246BEF603AB4FF0A6
