:020000040800F2
:100000000000022019370008790300087D0300086A
:100010008103000885030008890300080000000030
:100020000000000000000000000000008D03000838
:1000300091030008000000009503000899030008E0
:100040006937000869370008693700086937000810
:100050006937000869370008693700086937000800
:1000600069370008693700086937000869370008F0
:1000700069370008693700086937000869370008E0
:1000800069370008693700086937000869370008D0
:1000900069370008693700086937000869370008C0
:1000A00069370008693700086937000869370008B0
:1000B00069370008693700086937000869370008A0
:1000C0006937000869370008693700086937000890
:1000D0006937000869370008693700086937000880
:1000E0006937000869370008693700086937000870
:1000F000693700086937000869370008350B0008C0
:10010000693700086937000869370008693700084F
:10011000693700086937000869370008693700083F
:10012000693700086937000869370008693700082F
:10013000693700086937000869370008693700081F
:10014000693700086937000869370008693700080F
:1001500069370008693700086937000869370008FF
:1001600069370008693700086937000869370008EF
:1001700069370008693700086937000869370008DF
:08018000693700086937000827
:100188004FF4406070B5C4F20200002937D04FF434
:10019800005102F01FF84FF44060C4F202004FF41F
:1001A800804102F019F8204E331D06F582750024AF
:1001B8001A4623F8044C23F8024C22F8044B131D6A
:1001C800AB4222F8024CF3D13146802217489FED0A
:1001D800140B00F049FE9FED120B314680221448A3
:1001E80000F042FE3146134880229FED130A01F0C9
:1001F80047F830468021BDE8704000F06BBC4FF4F2
:10020800804101F0E7FF4FF44060C4F202004FF470
:10021800005101F0E1FF094EC6E700BFAFF30080CF
:100228000000000000000000E0080020C80C0020CA
:10023800BC0B0020900C002000000000E00900200A
:1002480040F21003C2F200032DE9F041196844F6A8
:10025800D352C1F26202A2FB01304EF210054FF4F4
:100268006D43CEF200058609CEF200030024721E0B
:100278000727F0214FF4406686B06A60C4F2020690
:1002880083F823100820AC6001212F6001F066FD7F
:1002980001254FF470434FF0030830466946009338
:1002A8008DF805808DF804508DF806408DF80740CC
:1002B80001F000FF29464FF4003001F079FD28468F
:1002C800294601F04BFD02236022694630468DF82D
:1002D800043000928DF805808DF806408DF807509F
:1002E8004FF4884801F0E6FE304605213A4601F011
:1002F80081FFC4F20008304606213A4601F07AFF31
:10030800404602A94FF4E1320C230292ADF80C40AA
:10031800ADF80E40ADF81040ADF81440ADF812300D
:1003280001F0E6FF4046294602F06AF806B0BDE84B
:10033800F08100BF054B1A6812B11868411E196098
:10034800034B1A68501C1860704700BF880C0020C7
:100358008C0C002082B0044A0190019B1360106845
:100368000028FCD102B07047880C0020704700BFFD
:10037800704700BFFEE700BFFEE700BFFEE700BF13
:10038800FEE700BF704700BF704700BF704700BF5F
:10039800FFF7D0BF4FF46D42CEF200024FF4605326
:1003A800D2F88810C4F2020341F47000C2F8880041
:1003B8001968002241F0010018609A60186843F239
:1003C800100120F0847020F48030C2F200411860DF
:1003D8005960196882B021F480201860DA600092B0
:1003E80001921A6842F480311960184603E00099B6
:1003F800B1F5A06F09D0036803F4003201920099A7
:100408004B1C0093019A002AF1D04FF46050C4F2BB
:100418000200036813F400320DD001210191019804
:1004280001280CD04FF46D43CEF200034FF0006169
:10043800996002B07047019201980128F2D14FF4F7
:100448006053C4F202034FF4E042196CC4F2000294
:1004580041F080501864116841F4804010609A6837
:100468009A60996841F400409860996845F208429A
:1004780041F4A050C0F2407298605A60196841F087
:1004880080721A60184601684FF460538A01C4F2FA
:100498000203F8D54FF47052C4F2020240F205602C
:1004A8001060996821F003029A60986840F0020190
:1004B80099609A6802F00C000828FAD1B2E700BFE8
:1004C8004FF46053C4F202039A6802F00C00042847
:1004D80012D0082815D04FF41051C0F2F4014FF48F
:1004E8006050C4F20200184B8268C2F303101A5C11
:1004F80021FA02F11961704747F64001C0F27D11F7
:10050800EDE758685A6810F4800F586802F03F0108
:1005180014BF47F640034FF41053C0F388124FF44A
:10052800605014BFC0F27D13C0F2F403C4F202009D
:10053800B3FBF1F303FB02F14268C2F30143581C19
:100548004200B1FBF2F1CAE700000020002070472A
:100558000020704701207047002070474FF0FF309F
:10056800704700BF00207047064B186838B1411823
:100578006A46914294BF19604FF0FF3070470248B5
:100588001860F4E7E40A0020A00D002070B5161EDC
:1005980014DD0C468D194FF48840C4F2000014F89D
:1005A800011B01F061FF4FF48840C4F200004021B4
:1005B80002F01EF80028F6D0AC42ECD1304670BDEF
:1005C80010B52DED028BB5EEC00A86B00023F1EE12
:1005D80010FAB0EE408AADF81430044606D52D2244
:1005E800B1EE408A8DF814208DF81530B0EE480A27
:1005F80003F08AF907EE904AF0EE408AF8EEE70A2F
:10060800B2EE040A03F0C6F978EE688AF6EE000A3C
:1006180048EE800ABCEEC88ABCEEE00A0094019459
:100628008DED020A0549064805AA18EE103A06F0AB
:1006380057F8034806B0BDEC028B10BD48F200081D
:10064800E80A002010B44FF4A844C4F20004228B36
:1006580002F002024FF4A84392B2C4F20003002A47
:10066800F5D11C88A2B242F480741C809C8A4FF495
:10067800A842E407C4F20002F8D594231382948AAE
:1006880004F002044FF4A843A4B2C4F20003002CFF
:10069800F5D01A8B1882988A00F080004FF4A8428F
:1006A80080B2C4F200020028F5D01182918A01F0CC
:1006B80004004FF4A84381B2C4F200030029F5D026
:1006C8001A8890B240F40071198010BC704700BFBE
:1006D80046F2B802C4F2020242F65041104BC0F290
:1006E800010110B5116018681C69506043F60C418F
:1006F800C4F20001916058680421D060516110680B
:1007080040F00101116000225A609868012280F0CF
:10071800010199601A7314B199685869A04710BD0E
:100728004C0B002008B502209E21FFF78BFF4FF4E9
:100738007053C4F200034FF460629A8308BD00BF8F
:1007480008B502200121FFF77DFF4FF47053C4F272
:10075800000300229A8308BD193010B5C4B221469F
:100768002020FFF76FFF21202146BDE81040FFF74A
:1007780069BF00BF2DE9F04FDFF874E2074601209A
:1007880087B0002488460146CEF80440CEF81040D1
:10079800CEF80040CEF81440CEF8084016468EF841
:1007A8000C401D4601F0DAFA0220012101F0D6FAC8
:1007B8000420012101F0D2FA0820012101F0CEFA2B
:1007C80001214FF4001001F0C9FA4FF4406B0121E8
:1007D8004FF400104FF0100A01F0EAFAC4F2020BCD
:1007E80001214FF4004001F0E3FA4FF00209012320
:1007F80058460DEB0A018DF814300193CDF810A07E
:100808008DF816408DF815908DF8174001F052FCC0
:10081800019B8DF815904FF480604FF41072C4F26C
:1008280002000DEB0A018DF8163004928DF8149031
:100838008DF8174001F03EFC4FF480600621042239
:10084800C4F2020001F0D6FC4FF4806004220921B2
:10085800C4F2020001F0CEFC4FF400604FF4A45241
:10086800C4F202000DEB0A0104928DF815908DF880
:1008780014908DF816408DF8174001F01BFC4FF4CA
:10088800006007210622C4F2020001F0B3FC4FF415
:100898000060C4F202000A21062201F0ABFC4FF40A
:1008A800006006220C21C4F2020001F0A3FC2046DD
:1008B800C4F202000DEB0A01CDF810A08DF81590D6
:1008C8008DF814908DF816408DF8174001F0F2FB62
:1008D80020460421C4F20200062201F08BFCABF88A
:1008E8001AA00394039844F6FE71884206DC00BF00
:1008F800039C631C0393039C8C42F8DD4FF4406314
:10090800C4F2020310221A8301214FF4001001F0EF
:1009180095FA00214FF4001001F090FA4FF4A84323
:10092800C4F200032A20D22248F2330198801981A8
:100938009A832B221A8440F201421A800220012154
:10094800FFF780FE0420AF21FFF77CFE0520812100
:10095800FFF778FE04210620FFF774FEFF20FFF75B
:10096800FBFE02209E21FFF76DFE0A200021FFF703
:1009780069FE0E200421FFF765FE27200021FFF7FE
:1009880061FE1F200F21FFF75DFE1A200A21FFF7E5
:1009980059FE1B200A21FFF755FE4FF47053C4F28D
:1009A80000034FF46050C4F202000021998382686A
:1009B800BF0122F4000347EA08778360C0F8847017
:1009C800016841F08062026003681B01FCD546F4AF
:1009D80000764FF47050C4F2000046EA0525ADB227
:1009E8004FF460610584818307B0BDE8F08F00BFD4
:1009F8004C0B00204FF47051C4F200010A8902F038
:100A080002024FF4705392B2C4F20003002AF5D0E8
:100A180080B29881704700BF4FF47053C4F200034E
:100A280080B29881704700BF46F2B802C4F2020251
:100A380070B5136823F0010406461460084611686F
:100A480011F00103FBD14FF461450D4ACEF20005C8
:100A58004FF400414FF470541373C4F200046960FA
:100A6800402185F82F13A18889B241F00201A180A5
:100A78001661506193600EB19168B04770BD00BFB8
:100A88004C0B002046F2B803C4F2020310B41968F4
:100A980021F001001A461860146814F00103FBD114
:100AA8000B484FF47051C4F2000103738A8822F096
:100AB80002024FF461441204CEF20004120C8A8040
:100AC8004FF40041C4F88410036110BC704700BFA4
:100AD8004C0B00200E4B5A6810B50AB1002010BD0F
:100AE8004FF46142CEF200024FF40044C2F8844051
:100AF80058601960187B40B14FF46141CEF2000193
:100B08004FF400434B60012010BDFFF7E1FDF3E710
:100B18004C0B002038B505460C4600E030BF28468F
:100B28002146FFF7D7FF0028F8D038BD4FF4C0435F
:100B3800C4F20203054AD96841F00060D8605368DE
:100B48000BB1FFF7C5BD1373704700BF4C0B0020F6
:100B580010B504460023481C84E80900A36002215C
:100B680005F0BEF9E06010BDC06805F047BA00BFE7
:100B7800826803684168013292FBF3F003FB10239B
:100B8800591A4A4252EB0100704700BF8268406818
:100B9800111A4B4253EB0100704700BF30B4826812
:100BA8000D88C4680368416824F81250013292FB2A
:100BB800F3F403FB14228A42826005D1013292FBCE
:100BC800F3F103FB1123436030BC704710B490E885
:100BD8001800121992FBF3F4C06803FB142330F8D1
:100BE8001300088010BC704742680368013251182E
:100BF80091FBF3F203FB12134360704730B583B0E7
:100C080002AD00230A4825F8023D44F62061FFF7AB
:100C18009FFF44F6226406482946FFF7BFFF013CC0
:100C280003482946FFF7BAFF013CF4D103B030BDB1
:100C3800AC0B00202DE9F0432DED028B01EBD171B7
:100C48005FEA610883B000F003810546834F35F9F8
:100C5800042B834807EE902A97ED007AB8EEE70A4E
:100C6800B6EE008A07EE080A0DF10601FDEEC00A8D
:100C780008F1FF3410EE903AADF80630FFF78EFF1A
:100C8800002277480DF10601FFF7A0FF0021744804
:100C9800FFF7AAFFBDF9060035F9046C01EE100A4A
:100CA80001EE906AB8EEC12AF8EEE12A42EE082A6F
:100CB8000126BDEEE23A04F0010913EE101A0AB259
:100CC80003EE902AF8EEE30A2C1D464525F8041C8D
:100CD80025F8021CC7ED000A00F0BA80B9F1000F30
:100CE8003DD034F9043C5E4804EE103AF8EEC44AAC
:100CF80040EE884A0DF10601BDEEE45A022615EED3
:100D0800102AADF80620FFF749FF002254480DF1DC
:100D18000601FFF75BFF00215148FFF765FFBDF9AA
:100D2800060034F9041C05EE900A06EE101AF8EED7
:100D3800E56AF8EEC67A46EE887ABDEEE77A17EEEF
:100D4800103A1AB200EE102AF8EEC00A24F8043C51
:100D580024F8023C04344645C7ED000A78D034F93B
:100D6800045C3F4801EE105AF8EEC11A40EE881AAA
:100D78000DF10601BDEEE12A254612EE103AADF856
:100D88000630FFF70BFF002235480DF10601FFF78B
:100D98001DFF00213248FFF727FFBDF9060034F98F
:100DA800041C02EE900A03EE101AF8EEE23AB8EECE
:100DB800C34A03EE884A2A48FDEEC44A0DF10601EB
:100DC80014EE903A24F8043C24F8023C35F9044B1C
:100DD8001AB205EE902A05EE104AB8EEE56AF8EE6A
:100DE800C56A46EE086A87ED006AFDEEE67A0236C5
:100DF80017EE903AADF80630FFF7D0FE00221848FB
:100E08000DF10601FFF7E2FE00211548FFF7ECFEA1
:100E1800BDF9060035F9041C07EE100A00EE101A99
:100E2800F8EEC70AB8EEC01A00EE881A2C1DFDEEBF
:100E3800C11A464511EE903A1AB202EE102AF8EE9F
:100E4800C20A25F8043C25F8023CC7ED000A86D101
:100E580003B0BDEC028BBDE8F08300BF640B00203B
:100E6800AC0B0020000000002DE9F04F2DED028BA7
:100E780002EBD27587B06D1052008846AB00514224
:100E88009FED7A8A01900291074603930026D7F8CE
:100E9800A400002800F0DF80002D40F3DA80019CD8
:100EA80004EB0612141DC24600220DF1160120465D
:100EB800FFF78CFE00212046FFF796FE3AF9041B47
:100EC800BDF916303AF9020C06EE103A07EE101A80
:100ED80006EE900AB8EEC60AF8EEC70A60EE087A7F
:100EE800B8EEE61A70EEA71A37EE812AFDEEE12A6F
:100EF800BDEEC23A12EE901A13EE102A4FF0010B13
:100F080005F1FF39AB452AF8041C2AF8022C09F030
:100F180001090AF1040A00F09A80B9F1000F33D0F0
:100F280000220DF116012046FFF750FE0021204651
:100F3800FFF75AFEBDF916303AF9040C3AF9021CCB
:100F480003EE903A04EE100A04EE901AB8EEE35A53
:100F5800F8EEC45A25EE086AF8EEE46A35EE867AA9
:100F680036EE260AFDEEC70AFDEEC07A10EE903A7C
:100F780017EE902A4FF0020BAB452AF8043C2AF8EA
:100F8800022C0AF1040A62D000220DF11601204653
:100F9800FFF71CFE00212046FFF726FEBDF91600CC
:100FA8003AF9023C3AF9041C01EE100A01EE901AD3
:100FB80002EE103AF8EEC12AB8EEE13A62EE883A4B
:100FC800B8EEC24A73EE234A33EE845AFDEEE45A71
:100FD800BDEEC56A15EE900A16EE102AD1462AF81B
:100FE800040C2AF8022C0DF1160100222046FFF706
:100FF800EDFD00212046FFF7F7FD39F9041BBDF987
:10100800163039F9020C00EE103A07EE101A06EE07
:10101800900AF8EEC00AB8EEC71A60EE887AF8EEC1
:10102800E61A31EE272A77EEA12ABDEEC23AFDEE86
:10103800E23A13EE102A13EE901A0BF1020BAB45AD
:1010480029F8042C29F8021C09F1040A9CD1039BF5
:10105800984402988044013604370A2E7FF417AF6B
:1010680007B0BDEC028BBDE8F08F00BFCDCC4C3E85
:101078002DE9F04F55EC104B8BB089463AA3D3E9D4
:1010880000238246294610EE100A01F0CBFD2246C5
:101098002B46CDE9020136A1D1E9000101F0C2FDDC
:1010A80001F030FF80460AEB091000F104094846B8
:1010B8004146CDF81490FFF74BFD9DED020B02F071
:1010C80053FBDDE9020153EC102B01F0CDFAB8F126
:1010D800000FCDE9060144DD0020002104460D463D
:1010E800002605E045EC104B02F03EFB51EC100BDE
:1010F80001F008FFDAF800B002B240F2FE733BF9E3
:1011080012909A42CCBFA0F2FF73431C48469FB28C
:1011180001F0F8FBCDE9000139B201363BF91100C5
:10112800C9EB000001F0EEFBDDE9062301F050FCFD
:1011380002460B46DDE9000101F098FA01F0E2FEF3
:101148000DF12601ADF826000598FFF727FD20468A
:101158002946DDE9022301F089FA464504460D4691
:10116800C0D10BB0BDE8F08F00000000808835408A
:10117800000000008088E540012908D004D3022936
:1011880001D1044B03607047034901607047034A6B
:101198000260704738D2000838C2000838E20008F8
:1011A80070B5D0E902230646D0E9040101F05EFAE1
:1011B80000230022C4F2A00304460D4601F08EFE6F
:1011C80050B10023204629460022C4F2A00301F0B2
:1011D8004BFAC6E9040170BDC6E9044570BD00BFFD
:1011E80030B5044683B00022002351EC100B0125D2
:1011F80084ED0A1BC4E90423C4E90623256084EDB1
:10120800020B00918DED010A02F0AEFA01980099E7
:1012180053EC102B01F028FAC4E9080103B030BDE3
:1012280070B5D0E9044506462946204601F06AFE15
:1012380000230022C3F6F073B0802946204601F04F
:1012480015FA00230022C4F2A00304460D4601F05B
:1012580045FE28B92046294601F054FEF08070BDAD
:1012680000230022C4F2A0032046294601F0FCF91D
:1012780001F048FEF08070BD00230360704700BF96
:1012880002EBD272C2F34F031AB2002A2DE9F00F13
:1012980040F339819D4E9E4FB6F80080B7F9004063
:1012A8009C4D0A1D0FFA88FA07EE90AA32F804AC92
:1012B800A7F800800FFA8AFB06EE90BA90ED045A60
:1012C80007EE104AB8EEE70A934CB5F90090B4F867
:1012D80000C0A6F800A0D0ED035AF8EEE60A20EE0A
:1012E800051A00EEA51A90ED056AF8EEC71A0FFA6E
:1012F8008CF804EE108A01EE861A90ED012AF8EEB9
:10130800C42A04EE909A02EEC21A90ED023AF8EE60
:10131800E43A03F1FF3303EEC31A01F1080BBDEE03
:10132800C17A1FFA83F917EE100A4FF403480BEB42
:10133800890901B2CFF6FF784145B8BF4146C2EBF3
:101348000903B1F5FA4FA8BF4FF4FA41A3F1040B12
:10135800131D89B24B452080A5F800C0CBF380004F
:1013680022F8041C22F8021C00F0CD80002843D08B
:10137800308833F8041CB7F90020388000B207EE33
:10138800900A08B200EE100AF8EEE70AB8EEC01AA2
:10139800B5F900C0318006EE902A60EE851A2288E1
:1013A80041EE251A04EE90CAF8EEE62A0FFA82FCFE
:1013B80004EE10CA42EE861AF8EEC43AB8EEE47AA1
:1013C80043EEC21A47EE431A2A80FDEEE16A16EE92
:1013D800901A0AB24245B8BF4246B2F5FA4FA8BFC2
:1013E8004FF4FA4290B2218023F8040C23F8020C3F
:1013F80004334B4500F08780308833F8042CB7F964
:1014080000C0388000B207EE900A10B200EE900AD1
:10141800B8EEE71AF8EEE01A2188328000EE10CA1A
:1014280061EE052AB5F900C0298041EEA52A04EE2F
:1014380090CAF8EEC03A0FFA81FC04EE10CA43EEE7
:10144800862AB8EEC47AF8EEE46A47EE422A46EEF7
:10145800C32ABDEEE20A10EE102A11B24145B8BF08
:101468004146B1F5FA4FA8BF4FF4FA4188B222803D
:1014780023F8040C23F8020C1A46B7F90000338845
:1014880032F8041B3B8000EE900AB5F90000B4F86E
:1014980000C031801BB204EE900A07EE903A08B201
:1014A80001EE100AF8EEE71AF8EEC12A21EE857A65
:1014B80002EEA57AF8EEE03A0FFA8CF304EE103A51
:1014C80003EE867AF8EEC46AB8EEE40A06EEC27A4B
:1014D80000EE437A131DFDEEC70AA5F800C010EE12
:1014E800900A01B24145B8BF4146B1F5FA4FA8BFCD
:1014F8004FF4FA4189B24B45208022F8041C22F8A7
:10150800021C7FF479AFBDE8F00F7047980D0020FA
:101518009C0D0020680B00209A0D0020F0B52DEDE1
:10152800088BB0EE40AAB2EE040A83B0B0EE608A2F
:10153800CAEE000A00F1180700F12806054602ACB9
:10154800F0EE418AF0EE61AA02F024FADFEDDC7ACF
:10155800F0EE409A28EEA70AF7EE008AC0EE080AD5
:1015680010EE900A01F0E0F941EC100B02F094F94A
:1015780051EC100B01F0EEFC002324F8023D02218F
:1015880008EE100A3846FFF7E3FA02213046FFF763
:10159800DFFA38462146FFF701FB30462146FFF7C0
:1015A800FDFA38462146FFF7F9FA30462146FFF79B
:1015B800F5FA38462146FFF7F1FA30462146FFF79B
:1015C800EDFA38462146FFF7E9FA30462146FFF79B
:1015D800E5FA2878012888EEAA9A00F0888033D3A3
:1015E80002282DD1C9EEAA9A28EE081A69EE889A1F
:1015F80069EE081A79EEA85A31EEA87A71EE686A8F
:1016080038EEE96A38EEE18A37EE012A75EE812A6A
:1016180036EEA63A76EE013A38EE014AC3EE024AB1
:1016280082EE825AC3EE827A84EE020A85ED035A6C
:10163800C5ED044AC5ED057AC5ED014A85ED020AF6
:1016480003B0BDEC088BF0BDB5EEC0AAF1EE10FA00
:10165800C0F2A08068EE08AA69EE083A3AEEE84AB5
:1016680033EEA8AA78EEE38A3AEE8AAA3AEEA85AA6
:1016780074EE044AF1EEE98A85EE0A0AC4EE8A7A23
:10168800F4EE688AF1EE10FA85ED020AC5ED017AEA
:10169800B0EE680A40F0E08160EE090AB7EE001A81
:1016A8006AEEA9AAF0EE411A40EE881A7AEEC15AFB
:1016B800C1EE8A6A35EEA57AF4EE688A87EE0A6A80
:1016C800F1EE10FAB0EE680AC5ED036A85ED046A1A
:1016D80040F0BD8160EE098AB7EE002A08EEC82AFC
:1016E8007AEE82AA8AEE8AAA85ED05AAA8E7B5EE5F
:1016F800C0AAF1EE10FAC0F2E580F1EEE9AAF4EE24
:101708006AAAF1EE10FAB0EE6A0A40F05B8120EEA8
:10171800092AF0EE692A68EE088A29EE08BA42EE2C
:10172800082AB7EE003A7BEE033A38EEA84A33EEC1
:10173800A8AA72EEA84A34EE695AC4EE8A0AC5EE1F
:101748000A7AF4EE6AAAF1EE10FAB0EE6A0AC5ED6A
:10175800030AC5ED047A40F0848160EE09AAB7EE69
:10176800000A4AEEC89A38EEC01A70EE4B1A79EEA3
:10177800A85A31EE017A71EEA88AC5EE8A6A87EE18
:101788000A6A88EE8AAAC5ED056A85ED016A85EDC3
:1017980002AA55E7F1EEE98A29EE08BAF4EE688A5A
:1017A800F1EE10FA68EE08AAB0EE680A40F04A8135
:1017B80020EE09AAF7EE000AB0EE601A0AEE081A3F
:1017C8007BEE201A29EEAAAA31EEAA7A71EE0A5AFD
:1017D800F4EE688AC7EE256AF1EE10FAB0EE680AF0
:1017E800C5ED036A40F0298120EE096AB7EE002AA8
:1017F800F0EE422A46EE082A3AEEC23A7AEE223A49
:1018080033EE034AF4EE688AC4EE234AF1EE10FA86
:10181800B0EE680AC5ED044A40F00A8120EE095A84
:10182800F7EE007AB0EE670A05EE080A77EECB0A03
:101838003AEE001A70EEAAAAF4EE688ACAEE811A85
:10184800F1EE10FAB0EE680AC5ED051A40F0EB802B
:10185800F7EE006A60EE095AB0EE667A05EE887A0D
:101868003AEE666A3AEE072A76EE062AF4EE688AB7
:1018780082EE823AF1EE10FAF0EE68AA85ED013AAE
:1018880040F0CA80F4EE688AF1EE10FAB0EE680A09
:1018980040F0BD806AEE89AA60EE098AF7EE005A28
:1018A800F0EE656A4AEEC86A48EE885A3AEE267A39
:1018B8003AEE25AA87EE0A6A85ED026AC0E600BFFD
:1018C800DB0F4940F1EEE98A69EE08AAF4EE688A6E
:1018D800F1EE10FA28EE08AAB0EE680A40F09280FD
:1018E80060EE092AB0EE693A02EE883AF7EE003A5D
:1018F8003AEEA34A73EE0A4A34EE0A5AF4EE688ABC
:10190800C5EE247AF1EE10FAB0EE680AC5ED037A56
:1019180073D120EE090AF0EE690A40EE080AB7EE24
:10192800001A7AEE411A70EE8A5A71EEA16AF4EE44
:10193800688A86EEA57AF1EE10FAB0EE680A85EDAF
:10194800047A55D120EE096AB0EE692A06EE082A13
:10195800F7EE002A72EEEAAA32EE0A3A7AEE8A3AEC
:10196800F4EE688A83EE834AF1EE10FA8AEE29AA29
:10197800B0EE680A85ED054A35D1C9EE004AB7EEE2
:10198800005AB0EE450A04EE880A7AEE457A7AEEF5
:10199800000A37EEA71AF4EE688AC1EE201AF1EEB3
:1019A80010FAF0EE68AAC5ED011A15D1F4EE688AAE
:1019B800F1EE10FAB0EE680A09D1C9EE2AAAC9EE0A
:1019C800008A6BE7B0EE690A02F0A4F99FE6B0EE70
:1019D800690A02F09FF9F0E7B0EE690A02F09AF995
:1019E800F0EE40AAE2E7B0EE690A02F093F9C4E724
:1019F800B0EE690A02F08EF9A4E7B0EE690A02F0C7
:101A080089F986E7B0EE690A02F084F968E7B0EE72
:101A1800690A02F07FF93DE7B0EE690A02F07AF947
:101A2800F0EE40AA2EE7B0EE690A02F073F90FE76C
:101A3800B0EE690A02F06EF9F0E6B0EE690A02F05B
:101A480069F9D1E6B0EE690A02F064F9B0E6B0EEE1
:101A5800690A02F05FF93DE6B0EE690A02F05AF948
:101A68001AE6B0EE690A02F055F976E640F6000883
:101A780000000020E0080020E0080020A00D002061
:101A88004FF46053C4F202030022196841F00101C7
:101A980019609A60186843F2100120F08470C2F24D
:101AA800004120F4803018605960196821F48021C1
:101AB8001960DA60704700BF43F60203C4F20203FC
:101AC80000221A701870704782B000234FF46052D9
:101AD8000193C4F2020213689B030FD4019B0133E4
:101AE8000193019BB3F5A06FF5D14FF46053C4F295
:101AF80002031868C0F3404002B07047019B0133ED
:101B08000193019BF1E700BF4FF46053C4F2020355
:101B18001A6822F0F80242EAC0001860704700BF55
:101B28000023C4F247231860704700BF43F67003D0
:101B3800C4F20203002201281A701A7005D0042882
:101B480002D105221A70704770471870704700BF9D
:101B58004FF46863C4F247231860704710B4019CBF
:101B680040EA04605B0801434FF46054C4F2020485
:101B7800013B41EA821242EA034363605DF8044B89
:101B8800704700BF6023C4F247231860704700BF46
:101B98004FF460530907C4F2020341EA8010C3F806
:101BA800840070476823C4F247231860704700BF59
:101BB8004C23C4F247231860704700BF4FF46053AA
:101BC800C4F202039A6822F0EC6211430843986059
:101BD800704700BF4FF46053C4F202039A6822F0C2
:101BE8007842114308439860704700BF4FF4605330
:101BF800C4F202039A6822F0030210439860704707
:101C08004FF46053C4F20203986800F00C00704768
:101C18004FF46053C4F202039A6822F0F0021043B2
:101C2800986070474FF46053C4F202039A6822F434
:101C3800E0521043986070474FF46053C4F20203B7
:101C48009A6822F4604242EAC0009860704700BF78
:101C58004FF46053C4F2020310B49A6802F00C0205
:101C6800042A24D0082A28D04FF41051C0F2F401D5
:101C780001604FF46052C4F2020240F21403946807
:101C8800C2F20003C4F303141C5DE1404160946890
:101C9800C4F382241C5D21FA04F4846092685DF820
:101CA800044BC2F342329B5CD940C160704747F68F
:101CB8004001C0F27D110160DBE75C685A6814F4EA
:101CC800800F5C6815BF47F640034FF41053C0F20D
:101CD8007D13C0F2F40302F03F02B3FBF2F14FF4BC
:101CE8006053C4F20203C4F388145B68C3F301436E
:101CF800013301FB04F15B00B1FBF3F10160B8E7CC
:101D080000F44073B3F5407F0CD14FF46053C4F234
:101D1800020320F070419A6821F4407122F4F8120D
:101D28000A439A604FF46053C4F20203C0F30B00F5
:101D38001A6F10431867704740F63C63C4F2472394
:101D4800186070474FF46463C4F247231860704703
:101D58004FF4AE73C4F24723186070474FF46053D2
:101D6800C4F202031A6B19B922EA0000186370471B
:101D780010431863704700BF4FF46053C4F2020366
:101D88005A6B19B922EA0000586370471043586328
:101D9800704700BF4FF46053C4F202039A6B19B93D
:101DA80022EA00009863704710439863704700BFA9
:101DB8004FF46053C4F202031A6C19B922EA000006
:101DC8001864704710431864704700BF4FF460539D
:101DD800C4F202035A6C19B922EA00005864704729
:101DE80010435864704700BF4FF46053C4F20203B5
:101DF8001A6919B922EA000018617047104318617E
:101E0800704700BF4FF46053C4F202035A6919B90E
:101E180022EA00005861704710435861704700BFBC
:101E28004FF46053C4F202039A6919B922EA000018
:101E38009861704710439861704700BF4FF4605332
:101E4800C4F202031A6A19B922EA0000186270473C
:101E580010431862704700BF4FF46053C4F2020386
:101E68005A6A19B922EA000058627047104358624A
:101E7800704700BF4FF46053C4F202031A6D19B9DA
:101E880022EA00001865704710431865704700BFC4
:101E98004FF46053C4F202035A6D19B922EA0000E4
:101EA8005865704710435865704700BF4FF460533A
:101EB800C4F202039A6D19B922EA000098657047C6
:101EC80010439865704700BF4FF46053C4F2020393
:101ED8001A6E19B922EA000018667047104318668E
:101EE800704700BF4FF46053C4F202035A6E19B929
:101EF80022EA00005866704710435866704700BFD2
:101F080043F60D03C4F202031A7819B922EA000055
:101F18001870704710431870704700BF4309012BB1
:101F28000ED0022B4FF46053C4F2020300F01F00DE
:101F38000CBF1B6F5B6F23FA00F000F001007047C5
:101F48004FF46053C4F2020300F01F001B6823FA29
:101F580000F000F0010070474FF46053C4F2020330
:101F68005A6F42F080725A67704700BF4FF460534F
:101F7800C4F20203DB6818420CBF0020012070473E
:101F880043F60E03C4F202031870704708B5002325
:101F9800C4F2020398423CD04FF48063C4F20203B7
:101FA800984240D04FF40063C4F20203984244D0F0
:101FB8004FF44063C4F20203984248D04FF4805370
:101FC800C4F2020398424CD04FF4A053C4F2020367
:101FD800984250D04FF4C053C4F20203984254D0F0
:101FE8004FF4E053C4F20203984258D04FF4005320
:101FF800C4F20203984200D008BD4FF4807001215A
:10200800FFF7F2FE4FF480700021BDE80840FFF7AB
:10201800EBBE01200146FFF7E7FE01200021BDE8E5
:102028000840FFF7E1BE02200121FFF7DDFE022094
:102038000021BDE80840FFF7D7BE04200121FFF7C3
:10204800D3FE04200021BDE80840FFF7CDBE0820DC
:102058000121FFF7C9FE08200021BDE80840FFF76D
:10206800C3BE10200121FFF7BFFE10200021BDE8EC
:102078000840FFF7B9BE20200121FFF7B5FE202058
:102088000021BDE80840FFF7AFBE40200121FFF75F
:10209800ABFE40200021BDE80840FFF7A5BE802028
:1020A8000121FFF7A1FE80200021BDE80840FFF7CD
:1020B8009BBE00BF00222DE9F04313460E6801279E
:1020C8004FF0030C04E00133102B02F102022ED072
:1020D80007FA03F404EA0605A542F4D1D0F8008013
:1020E80091F804E00CFA02F4E44304EA0808C0F8A2
:1020F8000080D0F800800EFA02F90EF1FF3E5FFA78
:102108008EFE49EA0808BEF1010FC0F8008010D918
:10211800C56891F807E02C40C460C5680EFA02F45F
:1021280001332C43102BC46002F10202D0D1BDE868
:10213800F083D0F8089091F8058091F806E004EA59
:102148000909C0F80890D0F8089008FA02F848EA97
:102158000908C0F80880D0F8048028EA0505456019
:1021680045680EFA03FE1FFA8EFE4EEA0505456025
:10217800CEE700BF00234FF6FF7202600371437180
:102188008371C371704700BF82B04FF480330193ED
:10219800019B0B430193019BC361C161019BC36117
:1021A800C3690193C369019302B070470369194277
:1021B8000CBF002001207047006980B2704700BF43
:1021C800436919420CBF002001207047406980B262
:1021D800704700BF01837047418370470AB9418344
:1021E80070470183704700BF416170474369594098
:1021F80041617047CB0800EB830001F0070110B480
:102208008900046A0F238B4024EA03030362036AEC
:102218005DF8044B8A4013430362704708B54FF4D6
:102228008053C4F20103984228D04FF48843C4F283
:10223800000398422CD04FF49043C4F20003984214
:1022480032D04FF49843C4F20003984238D04FF488
:10225800A043C4F2000398423ED04FF4A053C4F206
:102268000103984200D008BD20200121FFF7F4FDAA
:1022780020200021BDE80840FFF7EEBD1020012115
:10228800FFF7EAFD10200021BDE80840FFF7E4BD94
:102298004FF400300121FFF7D1FD4FF40030002149
:1022A800BDE80840FFF7CABD4FF480200121FFF7C1
:1022B800C5FD4FF480200021BDE80840FFF7BEBDF2
:1022C8004FF400200121FFF7B9FD4FF40020002151
:1022D800BDE80840FFF7B2BD4FF480100121FFF7B9
:1022E800ADFD4FF480100021BDE80840FFF7A6BD02
:1022F800028ACB8822F440521204F0B5120C04462C
:102308001A430F898E8848890D4689892282A389B4
:1023180023F4B05347EA060223F00C0302431B04DC
:1023280092B21B0C1343A381A38A23F440731B04AA
:102338001B0C85B00B43A3826846FFF789FCA6896E
:102348000298039B4FF4A0514FF48052C4F201014C
:10235800C4F20102944218BF8C4232B218BF03463D
:10236800002A2A68A08903EB8303B4BF52009200B5
:1023780003EB8303B3FBF2F348F21F52C5F2EB12EF
:10238800A2FB035100B264254909002801FB15335B
:10239800B5BFDB001B0132333233B5BFA2FB0302EA
:1023A800A2FB0352C2F34212C2F3431209011143C2
:1023B80089B2218105B0F0BD00234FF416510C22DB
:1023C800016042818380C38003818381704700BF9D
:1023D80030B40A884D888C88038AC9882A432243E6
:1023E80023F470630A431B0492B21B0C1343038249
:1023F80030BC70470023038043808380C3807047CC
:10240800838929B923F400531B041B0C838170476B
:102418009BB243F400538381704700BF038B03F4DE
:102428007F430383038B9BB219430183704700BF2B
:10243800838919B9C3F30E03838170476FEA434355
:102448006FEA53439BB28381704700BF838A29B9DF
:1024580023F400631B041B0C838270479BB243F474
:1024680000638382704700BFC1F308018180704711
:102478008088C0F308007047038A23F00F031B0409
:102488001B0C0382038A9BB219430182704700BF69
:10249800838929B923F002031B041B0C838170472D
:1024A8009BB243F002038381704700BF838923F402
:1024B80000631B041B0C838183899BB219438181B0
:1024C800704700BF038A23F020031B041B0C038200
:1024D800038A9BB219430182704700BF038A29B956
:1024E80023F480431B041B0C038270479BB243F404
:1024F80080430382704700BF83899BB243F0010386
:1025080083817047838A29B923F008031B041B0CB5
:10251800838270479BB243F008038382704700BFF1
:10252800038BDBB20383038B9BB243EA0121018354
:10253800704700BF838A29B923F020031B041B0CB2
:10254800838270479BB243F020038382704700BFA9
:10255800838A29B923F010031B041B0C838270475C
:102568009BB243F010038382704700BF838A23F035
:1025780004031B041B0C8382838A9BB21943818248
:10258800704700BF838A29B923F002031B041B0C80
:10259800838270479BB243F002038382704700BF77
:1025A800838A9BB21AB923EA0101818270471943D1
:1025B8008182704701F01F0310B4C1F34211012456
:1025C800A14204FA03F308BF0C3003D002290CBF60
:1025D8001030143004682AB924EA030303605DF854
:1025E800044B7047234303605DF8044B704700BFFA
:1025F800038819420CBF002001207047C94389B2E3
:1026080001807047C1F3421330B401F01F02012466
:10261800012B04FA02F416D0022B0CBF028A828A1C
:1026280092B2224003880125090A05FA01F19BB2FA
:1026380019420CBF00200120002A0CBF002000F026
:10264800010030BC7047828992B22240EAE700BF9D
:10265800090A012303FA01F1C94389B201807047CD
:1026680081F0004102E000BF83F0004330B54FEA3B
:1026780041044FEA430594EA050F08BF90EA020FA8
:102688001FBF54EA000C55EA020C7FEA645C7FEA3B
:10269800655C00F0E2804FEA5454D4EB5555B8BF5E
:1026A8006D420CDD2C4480EA020281EA030382EACF
:1026B800000083EA010180EA020281EA0303362D61
:1026C80088BF30BD11F0004F4FEA01314FF4801C34
:1026D8004CEA113102D0404261EB410113F0004F46
:1026E8004FEA03334CEA133302D0524263EB4303FD
:1026F80094EA050F00F0A780A4F10104D5F1200E9B
:102708000DDB02FA0EFC22FA05F2801841F10001F5
:1027180003FA0EF2801843FA05F359410EE0A5F1C9
:1027280020050EF1200E012A03FA0EFC28BF4CF0FA
:10273800020C43FA05F3C01851EBE37101F00045B0
:1027480007D54FF0000EDCF1000C7EEB00006EEBBD
:102758000101B1F5801F1BD3B1F5001F0CD3490847
:102768005FEA30004FEA3C0C04F101044FEA44529E
:1027780012F5800F80F09A80BCF1004F08BF5FEA25
:10278800500C50F1000041EB045141EA050130BD05
:102798005FEA4C0C404141EB010111F4801FA4F1A8
:1027A8000104E9D191F0000F04BF01460020B1FAFD
:1027B80081F308BF2033A3F10B03B3F120020CDA35
:1027C8000C3208DD02F1140CC2F10C0201FA0CF013
:1027D80021FA02F10CE002F11402D8BFC2F1200C78
:1027E80001FA02F120FA0CFCDCBF41EA0C0190402E
:1027F800E41AA2BF01EB0451294330BD6FEA040477
:102808001F3C1CDA0C340EDC04F11404C4F1200261
:1028180020FA04F001FA02F340EA030021FA04F373
:1028280045EA030130BDC4F10C04C4F1200220FACA
:1028380002F001FA04F340EA0300294630BD21FA08
:1028480004F0294630BD94F0000F83F4801306BFCE
:1028580081F480110134013D4EE77FEA645C18BFC2
:102868007FEA655C29D094EA050F08BF90EA020F59
:1028780005D054EA000C04BF1946104630BD91EA51
:10288800030F1EBF0021002030BD5FEA545C05D154
:102898004000494128BF41F0004130BD14F5800493
:1028A8003CBF01F5801130BD01F0004545F0FE4107
:1028B80041F470014FF0000030BD7FEA645C1ABF3C
:1028C800194610467FEA655C1CBF0B46024650EA73
:1028D800013406BF52EA033591EA030F41F400219F
:1028E80030BD00BF90F0000F04BF0021704730B525
:1028F8004FF4806404F132044FF000054FF00001FA
:1029080050E700BF90F0000F04BF0021704730B5BA
:102918004FF4806404F1320410F0004548BF40428F
:102928004FF000013EE700BF42004FEAE2014FEAE4
:1029380031014FEA02701FBF12F07F4393F07F4FBF
:1029480081F06051704792F0000F14BF93F07F4FF1
:10295800704730B54FF4607401F0004521F0004134
:1029680020E700BF50EA010208BF704730B54FF0BA
:1029780000050AE050EA010208BF704730B511F0BF
:10298800004502D5404261EB41014FF4806404F1F7
:1029980032045FEA915C3FF4DCAE4FF003025FEA79
:1029A800DC0C18BF03325FEADC0C18BF033202EB01
:1029B800DC02C2F1200300FA03FC20FA02F001FA5B
:1029C80003FE40EA0E0021FA02F11444C1E600BFFA
:1029D80070B54FF0FF0C4CF4E06C1CEA11541DBFAD
:1029E8001CEA135594EA0C0F95EA0C0F00F0DEF878
:1029F8002C4481EA030621EA4C5123EA4C5350EA5D
:102A0800013518BF52EA033541F4801143F48013AD
:102A180038D0A0FB02CE4FF00005E1FB02E506F03E
:102A28000042E0FB03E54FF00006E1FB03569CF093
:102A3800000F18BF4EF0010EA4F1FF04B6F5007F99
:102A480064F5407404D25FEA4E0E6D4146EB06060B
:102A580042EAC62141EA55514FEAC52040EA5E5094
:102A68004FEACE2EB4F1FD0C88BFBCF5E06F1ED83E
:102A7800BEF1004F08BF5FEA500E50F1000041EB75
:102A8800045170BD06F0004646EA010140EA020022
:102A980081EA0301B4EB5C04C2BFD4EB0C0541EA44
:102AA800045170BD41F480114FF0000E013C00F359
:102AB800AB8014F1360FDEBF002001F0004170BD7D
:102AC800C4F10004203C35DA0C341BDC04F1140496
:102AD800C4F1200500FA05F320FA04F001FA05F222
:102AE80040EA020001F0004221F0004110EBD370EF
:102AF80021FA04F642EB06015EEA430E08BF20EA1B
:102B0800D37070BDC4F10C04C4F1200500FA04F3BD
:102B180020FA05F001FA04F240EA020001F000414F
:102B280010EBD37041F100015EEA430E08BF20EAC2
:102B3800D37070BDC4F1200500FA05F24EEA020E0A
:102B480020FA04F301FA05F243EA020321FA04F039
:102B580001F0004121FA04F220EA020000EBD370F0
:102B68005EEA430E08BF20EAD37070BD94F0000FF0
:102B78000FD101F00046400041EB010111F4801F24
:102B880008BF013CF7D041EA060195F0000F18BFD5
:102B9800704703F00046520043EB030313F4801F11
:102BA80008BF013DF7D043EA0603704794EA0C0FCB
:102BB8000CEA135518BF95EA0C0F0CD050EA4106E1
:102BC80018BF52EA4306D1D181EA030101F000415E
:102BD8004FF0000070BD50EA410606BF1046194686
:102BE80052EA430619D094EA0C0F02D150EA013692
:102BF80013D195EA0C0F05D152EA03361CBF1046D3
:102C080019460AD181EA030101F0004141F0FE4171
:102C180041F470014FF0000070BD41F0FE4141F4F5
:102C2800780170BD70B54FF0FF0C4CF4E06C1CEAF5
:102C380011541DBF1CEA135594EA0C0F95EA0C0FAA
:102C480000F0A7F8A4EB050481EA030E52EA033565
:102C58004FEA013100F088804FEA03334FF0805586
:102C680045EA131343EA12634FEA022245EA1115B3
:102C780045EA10654FEA00260EF000419D4208BF64
:102C8800964244F1FD0404F5407402D25B084FEA11
:102C98003202B61A65EB03055B084FEA32024FF4BD
:102CA80080104FF4002CB6EB020E75EB030E22BF1A
:102CB800B61A754640EA0C005B084FEA3202B6EBDA
:102CC800020E75EB030E22BFB61A754640EA5C0089
:102CD8005B084FEA3202B6EB020E75EB030E22BF19
:102CE800B61A754640EA9C005B084FEA3202B6EB1A
:102CF800020E75EB030E22BFB61A754640EADC00D9
:102D080055EA060E18D04FEA051545EA16754FEA3A
:102D180006164FEAC30343EA52734FEAC2025FEA58
:102D28001C1CC0D111F4801F0BD141EA00014FF0E7
:102D380000004FF0004CB6E711F4801F04BF0143B8
:102D48000020B4F1FD0C88BFBCF5E06F3FF6AFAED4
:102D5800B5EB030C04BFB6EB020C5FEA500C50F164
:102D6800000041EB045170BD0EF0004E4EEA1131E7
:102D780014EB5C04C2BFD4EB0C0541EA045170BDEE
:102D880041F480114FF0000E013C90E645EA060E32
:102D98008DE60CEA135594EA0C0F08BF95EA0C0F60
:102DA8003FF43BAF94EA0C0F0AD150EA01347FF4A8
:102DB80034AF95EA0C0F7FF425AF104619462CE77F
:102DC80095EA0C0F06D152EA03353FF4FDAE1046E2
:102DD800194622E750EA410618BF52EA43067FF433
:102DE800C5AE50EA41047FF40DAF52EA43057FF4C3
:102DF800EBAE12E74FF0FF3C06E000BF4FF0010CCE
:102E080002E000BF4FF0010C4DF804CD4FEA410C31
:102E18007FEA6C5C4FEA430C18BF7FEA6C5C1BD0FE
:102E280001B050EA410C0CBF52EA430C91EA030F7F
:102E380002BF90EA020F0020704710F1000F91EADC
:102E4800030F58BF994208BF90422CBFD8176FEAAA
:102E5800E37040F0010070474FEA410C7FEA6C5C78
:102E680002D150EA013C07D14FEA430C7FEA6C5C7F
:102E7800D6D152EA033CD3D05DF8040B704700BFAB
:102E88008446104662468C461946634600E000BFF9
:102E980001B5FFF7B7FF002848BF10F1000F01BDCB
:102EA8004DF808EDFFF7F4FF0CBF012000205DF896
:102EB80008FB00BF4DF808EDFFF7EAFF34BF01201B
:102EC80000205DF808FB00BF4DF808EDFFF7E0FFB4
:102ED80094BF012000205DF808FB00BF4DF808ED05
:102EE800FFF7CEFF94BF012000205DF808FB00BF6C
:102EF8004DF808EDFFF7C4FF34BF012000205DF84E
:102F080008FB00BF4FEA410212F5001215D211D595
:102F18006FF47873B3EB625212D94FEAC12343F0CE
:102F2800004343EA505311F0004F23FA02F018BF50
:102F3800404270474FF00000704750EA013005D119
:102F480011F0004008BF6FF0004070474FF00000DC
:102F5800704700BF4FEA4102B2F1E04324BFB3F526
:102F6800001CDCF1FE5C0DD901F0004C4FEAC002F8
:102F78004CEA5070B2F1004F40EB830008BF20F0DC
:102F88000100704711F0804F21D113F13872BCBF96
:102F980001F00040704741F480114FEA5252C2F1EB
:102FA8001802C2F1200C10FA0CF320FA02F018BF34
:102FB80040F001004FEAC1234FEAD32303FA0CFC87
:102FC80040EA0C0023FA02F34FEA4303CCE77FEA16
:102FD800625307D150EA01331EBF4FF0FE4040F460
:102FE8004000704701F0004040F0FE4040F400000F
:102FF800704700BF4BB942B9002908BF002802D06A
:103008004FF0FF31084600F037B882B0EC462DE9A2
:10301800005000F01BF8DDF804E002B00CBC70476B
:10302800F8B5164604460D461F4600F027F806FB7D
:1030380001F300FB0737A6FB0023FB18A21A65EB78
:103048000303069CC4E90023F8BD00BFF8B5164683
:1030580004460D461F4600F06FF900FB07F7A0FB7A
:10306800062306FB0177FB18A21A65EB0303069CEF
:10307800C4E90023F8BD00BF704700BF00292DE94F
:10308800F00F1D46C0F29D800024002DC0F29480F0
:1030980080460F4694461E46E3BB8A4255D9B2FA8B
:1030A80082F747B1C7F1200520FA05F601FA07F1C2
:1030B800BA403143B840170CB1FBF7F6030C1FFABE
:1030C80082FC07FB16110CFB06F543EA01439D42FF
:1030D80008D9711E9B1880F013819D4240F210811F
:1030E800023E9B18591BB1FBF7F507FB151380B27D
:1030F8000CFB05FC40EA03418C4507D96B1E8A1876
:1031080080F00081944540F2FD80023D45EA064189
:10311800002503E08B420CD9002529460A462B4698
:1031280014B1524263EB430310461946BDE8F00F51
:103138007047B3FA83F5002D40F087808B4201D3A6
:103148008242EAD800250121E8E712B90126B6FB38
:10315800F2F2B2FA82F6002E39D18E1A130C1FFA47
:1031680082FC0125B6FBF3F703FB17614FEA104910
:103178000CFB07F849EA0146B04506D9791EB6188E
:1031880002D2B04500F2D3800F46C8EB0606B6FB64
:10319800F3F103FB116380B20CFB01FC40EA03432B
:1031A8009C4506D94E1E9A1802D2944500F2C28058
:1031B800314641EA0741B1E7E443524263EB430336
:1031C80066E7404261EB41014FF0FF345DE7B240F2
:1031D800C6F1200921FA09F720FA09F5130C01FABA
:1031E80006F1B7FBF3F845EA01091FFA82FC03FB75
:1031F80018774FEA19410CFB08F541EA0747B04038
:10320800BD420AD9BF1808F1FF3680F08E80BD4252
:1032180040F28B80A8F10208BF18791BB1FBF3F5C7
:1032280003FB15171FFA89F90CFB05F649EA074154
:103238008E4206D96F1E891871D28E426FD9023D0F
:1032480089188E1B45EA08458CE7C5F1200122FA4A
:1032580001F306FA05F61E4327FA01F24FEA16496A
:1032680007FA05F720FA01F1B2FBF9F80F433B0C16
:103278001FFA86FA09FB18220AFB08FB43EA0242F6
:1032880093450CFA05FC08D9921908F1FF314AD286
:10329800934548D9A8F102089219CBEB0203B3FB76
:1032A800F9F109FB1132BFB20AFB01FA47EA0243FE
:1032B8009A4506D94A1E9B1933D29A4531D9023903
:1032C8009B1941EA08410F0C1FFA8CF808FB07F616
:1032D8008AB24FEA1C4C08FB02F80CFB026202EBB4
:1032E80018420CFB07FC964288BF0CF5803CCAEBE1
:1032F80003030CEB124C63450ED305D000250DE7F4
:103308000E46EFE61D4601E71FFA88F800FA05F0B9
:1033180008EB0245A842F1D201390025FEE63D46F8
:103328008FE71146CDE78846B7E7B04675E7023F15
:10333800B6182AE702393CE72DE9F0071446054696
:103348000E46002B3DD18A4249D9B2FA82F747B1DD
:10335800C7F1200120FA01F206FA07F6BC4016432D
:10336800BD40220CB6FBF2F02F0CA1B202FB106696
:1033780001FB00F347EA0646B34208D9471E36194F
:1033880080F0F880B34240F2F58002383619F61A18
:10339800B6FBF2F302FB1362ADB201FB03F145EA9F
:1033A8000242914207D95E1E121980F0E5809142CF
:1033B80040F2E280023B43EA00400021BDE8F0070A
:1033C80070478B4243D8B3FA83F4002C42D18B4226
:1033D80002D3824200F2DF8000210120EEE712B919
:1033E8000127B7FBF2F4B4FA84F2002A40F088808F
:1033F8000A1B230CA7B20121B2FBF3F603FB16222A
:103408004FEA154C07FB06F04CEA0242904207D9F6
:10341800121906F1FF3C02D2904200F2CE806646B5
:10342800121AB2FBF3F003FB1023ADB207FB00F74F
:1034380045EA03439F4207D9421E1B1980F09E802C
:103448009F4240F29B80023840EA0640B6E70021DE
:103458000846B3E7C4F1200622FA06F503FA04F396
:103468002B434FEA134C21FA06F501FA04F120FA2E
:1034780006F6B5FBFCF746EA010A1FFA83F80CFBCF
:1034880017554FEA1A4108FB07F941EA0545A945CE
:1034980002FA04F203D97E1EED187FD33746C9EB32
:1034A8000501B1FBFCF60CFB16151FFA8AFA08FB9E
:1034B80006F84AEA0541884503D9751EC91873D329
:1034C8002E4646EA0746370C1FFA82FC0CFB07F526
:1034D800120CB3B20CFB03FC02FB035303EB1C43BB
:1034E80002FB07F29D4288BF02F58032C8EB01015A
:1034F80002EB134291424BD342D0304600215DE7A4
:103508009440C2F1200521FA05F6230C20FA05F7AC
:1035180001FA02F1B6FBF3FC39430D0CA7B203FB29
:103528001C6645EA064607FB0CF8B04500FA02F5AA
:1035380008D936190CF1FF303DD2B0453BD9ACF172
:10354800020C3619C8EB0602B2FBF3F003FB102697
:103558008AB242EA064207FB00F1914206D9461EAA
:10356800121926D2914224D902381219521A40EA65
:103578000C4141E738460AE733461CE7104663E743
:103588001FFA8CFC00FA04F00CEB03439842B4D207
:10359800701E002112E7214620460FE7A9457FF655
:1035A8007DAF023FED187AE7884589D9023EC918F0
:1035B80087E73046DAE78446C4E7023E12192FE768
:1035C8002DE9F843FCF73CFE494E4A484A4C022193
:1035D8008046FDF7D1FD30460021FDF7CDFDFDF712
:1035E8000DFBB7EE000ADFED450A9FED451ADFED4A
:1035F800451A45480021FDF791FF022106220023C4
:1036080040F20F10FDF7B6F8CA20FDF7A5F83F48BD
:103618000021FDF709FA47460023C4F2020318699E
:10362800C307F9D50A2121602268002AFCD1C4F217
:103638000202156915F0010536D0D8F8A450002DFE
:10364800EAD129462B489FED220BFDF711FD0121F8
:1036580028489FED210BFDF70BFD022125489FED22
:10366800200BFDF705FD032122489FED1F0BFDF7F9
:10367800FFFC4FF0010929461D48C7F8A4909FEDAB
:103688001A0BC7F8A890C7F8AC90C7F8B090FDF728
:10369800EFFC4FF44060C4F202004FF40041C6F85A
:1036A800A490FEF797FDB7E74FF44060C4F202001C
:1036B8004FF40041FEF790FDC8F8A450C8F8A85090
:1036C800C8F8AC50C8F8B050C6F8A450A4E700BF7A
:1036D8000000000000806B400000000000A0744063
:1036E8000000000000A084400000000000805B4053
:1036F800BC0B0020C80C0020880C002000442C477C
:103708000000C8433333333F900C00208901000880
:10371800002100F004B80D4B5B58435004310C48AD
:103728000C4B42189A42FFF4F6AF0B4A00F003B86C
:10373800002342F8043B094B9A42FFF4F9AFFCF727
:1037480029FE02F009FCFFF73BFF704740F600082E
:1037580000000020E0080020E0080020A00D002064
:10376800FFF7FEBF000000002DE9F84353EC102BD3
:10377800C3F30A57A7F2FF34132C1D46984610EEE0
:10378800106A23DC002C4FDB4FF6FF71C0F20F01EB
:1037980041FA04F707EA030252EA060314D03CA3ED
:1037A800D3E9002351EC100BFEF760FF0022002341
:1037B800FFF79EFB20B1002D48DB28EA070500260D
:1037C8002946304641EC100BBDE8F883332C0BDD5D
:1037D800B4F5806FF8D151EC100B0B46FEF746FF9D
:1037E80041EC100BBDE8F883A7F213434FF0FF3903
:1037F80029FA03F919EA060FE6D025A3D3E900232D
:1038080051EC100BFEF732FF00220023FFF770FB8C
:103818000028D5D0002D1FDB26EA09064546294693
:10382800304641EC100BCFE719A3D3E9002351EC44
:10383800100BFEF71BFF00220023FFF759FB00289F
:10384800BED0002D15DB00263546B9E74FF48015AC
:1038580045FA04F4A044B0E7142C07D0C7F58667EE
:103868000337012000FA07F08619D5D308F10108BB
:10387800D2E725F00040304300239842CBF6F0739E
:1038880018BF002618BF1D469AE700BFAFF3008097
:103898009C7500883CE4377E00B553EC102B42F24F
:1038A800FB1223F00043C3F6E972934285B01FDD93
:1038B8004FF6FF70C7F6EF7083420ADD51EC100B2C
:1038C80010EE102A0B46FEF7CFFE41EC100B05B0A8
:1038D80000BD684600F078FA00F001014A009DED4D
:1038E800000B9DED021BC2F1010001F00DFFEEE798
:1038F8009FED031B012001F007FFE8E7AFF300800D
:10390800000000000000000010EE103A23F0004113
:10391800CA0D7F3A162A1BDC002A10EE100A1DDB9E
:103928004FF6FF71C0F27F0141FA02F119420ED041
:10393800DFED177A30EE270AB5EEC00AF1EE10FA7D
:1039480003DD002B17DB20EA010300EE103A704775
:10395800B1F1FF4FFBD330EE000A7047DFED0C0AE0
:1039680030EE201AB5EEC01AF1EE10FAEDDD002B9C
:1039780007DB0023E9E74FF4000343FA02F280185B
:10398800E1E70022CBF68072002918BF1346DCE776
:10399800CAF2497170B52DED048B9B4E8AB0B0EE1A
:1039A800409AF0EE608A00F05BFC96F90030013333
:1039B800B0EE408A04D0B0EE680A02F0D7F928B910
:1039C800B0EE480A0AB0BDEC048B70BDB0EE490AEF
:1039D80002F0CCF9002836D1F5EE408AF1EE10FA63
:1039E800EED18A490890012319EE100A009301913B
:1039F800FEF79AFFCDE9020118EE900AFEF794FF50
:103A0800CDE904010021002096F90030C3F6F071D9
:103A180041EC100B5A1C8DED060B0DD0022B0BD070
:103A2800684602F06FF8002800F0AC80089818B1DA
:103A380008F0F6FB08990160DDE90601FFF78AFA4C
:103A480008EE100ABCE7B5EE409AF1EE10FA29D15B
:103A5800F5EE408AF1EE10FA63D16C4B0122002199
:103A680019EE100A009201930891FEF75DFFCDE967
:103A7800020118EE900AFEF757FFCDE90401002075
:103A8800002141EC160B96F900208DED066B002AFB
:103A9800C6D000210020C3F6F07141EC170B8DED64
:103AA800067BC9E7B0EE480A02F056F9044600283A
:103AB8006DD0B5EE408AF1EE10FA81D1B0EE490A28
:103AC80002F04AF900283FF47BAFB0EE680A02F032
:103AD80043F900283FF474AF4C4A0023042119EE3F
:103AE800100A019208930091FEF71EFFCDE902012A
:103AF80018EE900AFEF718FF96F90020CDE90401A8
:103B08000020002141EC170B022A8DED067B76D0B0
:103B1800684601F0F7FF002871D0089800288BD07C
:103B280086E7B0EE680A02F017F900283FF448AFBC
:103B3800F5EEC08AF1EE10FA7FF542AF3349012362
:103B4800002219EE100A009308920191FEF7ECFE8C
:103B5800CDE9020118EE900AFEF7E6FE3378CDE9CA
:103B6800040100200021002B46D0CFF6F07141EC73
:103B7800140B022B8DED064B38D108F051FB212197
:103B88000160CAE708F04CFB212202604EE7B0EE64
:103B9800490A02F0E1F800288BD0B0EE680A02F07A
:103BA800DBF8002885D0B0EE480A02F0DFF80028DC
:103BB8002ED1164A0890012419EE100A0094019299
:103BC800FEF7B2FECDE9020118EE900AFEF7ACFE50
:103BD8003478CDE90401002000216CB102460B467F
:103BE800FFF720F8022CCDE90601C6D0684601F09F
:103BF80089FF002891D1C0E7CDE90601F6E708F072
:103C08000FFB2221016088E72400002058F20008F9
:103C18003F4A0894032319EE100A00930192FEF715
:103C280083FECDE9020118EE900AFEF77DFE96F9B3
:103C38000030CDE90401EBB94FF6FF714FF0604059
:103C4800C4F2EF7141EC120BB5EEC09AF1EE10FA26
:103C58008DED062B3AD496F90000022805D0684667
:103C680001F050FF00287FF4E1AE08F0D9FA2221D4
:103C78000160DBE600210020C7F6F07141EC100B73
:103C8800B5EEC09AF1EE10FA8DED060BE3D5F6EE1F
:103C9800007A68EEA70A10EE900AFEF745FE044681
:103CA8000D4645EC104B01F02FFF2046294653ECFA
:103CB800102BFFF7F5F80028CDD100210020CFF612
:103CC800F07141EC110B8DED061BC4E7F6EE001AFE
:103CD80068EEA12A12EE900AFEF726FE04460D466B
:103CE80045EC104B01F010FF2046294653EC102BF1
:103CF800FFF7D6F80028AED14FF6FF714FF06040BD
:103D0800CCF2EF7141EC130B8DED063BA3E700BF3E
:103D180058F2000810B52DED028B294C8AB0F0EE50
:103D2800408A00F08DFD94F900300133B0EE408AEE
:103D380009D0B0EE680A02F019F820B1F5EEC08A91
:103D4800F1EE10FA05D4B0EE480A0AB0BDEC028BC9
:103D580010BD1C4A0121002318EE900A009101921F
:103D68000893FEF7E1FD2478CDE90401CDE90201CD
:103D780094B90022002343EC172B8DED067B68468F
:103D880001F0C0FE90B10898A8B9DDE90601FFF777
:103D9800E1F808EE100AD6E70020002102460B469B
:103DA800FEF740FF022CCDE90601E8D108F038FA09
:103DB80021210160E7E708F033FA089A0260E4E796
:103DC8002400002060F200082DE9F04F53EC102B7E
:103DD80042F2FB1123F00046C3F6E9718E428FB020
:103DE8001C46804640F3AE804DF67B12C4F20202B8
:103DF800964299462BDC002C51EC100BA8A3D3E972
:103E0800002340F3D181FEF72FFC42F2FB14C3F6E6
:103E1800F974A64282468B4600F0B080A2A3D3E98B
:103E28000023FEF721FC04460D46504622462B4649
:103E38005946C8E90045FEF717FC9BA3D3E90023C0
:103E4800FEF712FC4FF0010AC8E9020184E042F2D1
:103E5800FB13C4F239139E4240F3B0804FF6FF7053
:103E6800C7F6EF7086427BDC4FEA265AAAF2164A5A
:103E780051EC100BA6EB0A5529460646FFF742F807
:103E8800FEF740FD2F4604460D4622462B46304697
:103E98003946CDE90845FEF7E7FB00230022C4F2C6
:103EA8007013FEF795FD0F460646FFF72BF8FEF751
:103EB80029FD04460D4622462B4630463946CDE9B3
:103EC8000A45FEF7D1FB00230022C4F27013FEF767
:103ED8007FFD00220023CDE90C01FEF7E1FF002859
:103EE80000F08581032620462946002200230AAFD8
:103EF800013EFEF7D5FF40B177E902010022002319
:103F0800013EFEF7CDFF0028F6D1694A0221009153
:103F1800019208A852464146334600F0F5FCB9F133
:103F2800000F824618DAD8F80400D8F80C3000F1EF
:103F3800004103F10042C8F80410C8F80C20CAF187
:103F4800000A09E00022002388ED000B43EC102B47
:103F580080ED020B4FF0000A50460FB0BDE8F08F1D
:103F680051EC100B10EE102A0B46FEF77DFB4FF0BC
:103F7800000AC8E90201C8E90001EDE742A3D3E954
:103F88000023FEF771FB42A3D3E9002306460F4640
:103F9800FEF76AFB04460D4622462B463046394654
:103FA800C8E90045FEF760FB39A3D3E90023FEF713
:103FB8005BFB4FF0010AC8E90201CDE701F098FD6B
:103FC80055EC104B10EE100A33A3D3E90023294611
:103FD800FEF7FEFC00230022C3F6E073FEF746FB63
:103FE800FEF790FF8246FEF78DFC2DA3D3E9002350
:103FF800CDE90401FEF7ECFC02460B4620462946B3
:10400800FEF732FB28A3D3E9002304460D46DDE979
:104018000401FEF7DDFCBAF11F0FCDE902012046CD
:10402800294649DC0AF1FF37224B53F82720B242D0
:1040380042D0DDE90223FEF717FB02460B46C8E92A
:10404800002383460F465A463B4620462946FEF73C
:104058000BFBDDE90223FEF707FBB9F1000F02466F
:104068000B46C8E90223BFF677AF07F1004701F115
:104078000043C8F800B0C8F80470C8F80800C8F8C9
:104088000C30CAF1000A67E70000601A61B4D03D3D
:104098007370032E8A19A33B83C8C96D305FE43F50
:1040A80000004054FB21F93F3163621A61B4D03DEE
:1040B800E8F2000868F20008DDE90223FEF7D4FA06
:1040C80036150B460F46C1F30A5102468346701A4D
:1040D8001028C8E90023B6DD57A3D3E90023DDE99A
:1040E8000401FEF775FCCDE90201DDE90223204653
:1040F8002946FEF7B9FACDE90601DDE9062320468F
:104108002946FEF7B1FADDE90223FEF7ADFA4CA322
:10411800D3E9002304460D46DDE90401FEF758FC07
:1041280022462B46FEF7A0FACDE90201DDE902237B
:10413800DDE90601FEF798FA02468346C1F30A5004
:10414800361A0B46312E0F46C8E9002371DD3EA30F
:10415800D3E90023DDE90401FEF73AFC06460F46E1
:1041680032463B46DDE90601FEF77EFA04460D4677
:1041780022462B46DDE90601FEF776FA32463B4633
:10418800FEF772FA32A3D3E9002306460F46DDE9AB
:104198000401FEF71DFC32463B46FEF765FACDE901
:1041A80002012046294644E7FEF760FA42F2FB1274
:1041B800C3F6F972964282468B461AD026A3D3E9F3
:1041C8000023FEF753FA04460D46504622462B4676
:1041D8005946C8E90045FEF747FA1FA3D3E900236B
:1041E800FEF744FA4FF0FF3AC8E90201B4E60326A5
:1041F8008BE611A3D3E90023FEF738FA10A3D3E91D
:10420800002306460F46FEF731FA04460D462246BD
:104218002B4630463946C8E90045FEF725FA08A37B
:10422800D3E90023FEF722FA4FF0FF3AC8E902016A
:1042380092E6DDE9064506E70000601A61B4D03D64
:104248007370032E8A19A33B0000002E8A19A33B22
:10425800C14920259A837B393163621A61B4D03D04
:104268002DE9F04710EE904A34F000472DED028B0F
:1042780010EE905A10EE106A13D026F00048B8F1EC
:10428800FF4F10EE109A06DD5E48BDEC028BBDE8CC
:10429800F04701F099BDB7F1FF4F0ADDB8F17E5F35
:1042A800F2D14FF07E5400EE104ABDEC028BBDE80F
:1042B800F087002E59DB4FF0000AB7F1FF4F4DD0C1
:1042C800B7F17E5F64D0B5F1804F6DD0B5F17C5FFA
:1042D80000EE106A1ED001F037FDB8F1FF4F22D072
:1042E800B8F1000F1FD0B8F17E5F1CD04FEAD9702B
:1042F800431E5AEA03027BD0B7F19A4F40F38880F5
:104308004FF6F770C3F67F70804518DC002D1EDB72
:104318000024C8E7B9F1000FDDDBBDEC028BBDE876
:10432800F04700F08DBA002DBCBFF7EE004A84EECE
:10433800800AB9F1000F3EDB10EE104AB3E70721FF
:10434800C3F68071884540F31782002DE0DDDFED6C
:104358002E2A22EEA20A10EE104AA4E7B8F17E5FD8
:104368009FD01CDD002D9EDAD2E7B7F1974F13DA04
:10437800B7F17E5F09DBFB15C3F1960047FA00F23F
:1043880002FA00F1B94200F096814FF0000A97E76F
:10439800002D1CDB344686E74FF0020A8DE7002D1E
:1043A800B6DA84F000447EE703EE906A63EEA31A5F
:1043B80011EE904A77E7A8F17E585AEA08080FD11B
:1043C80030EE401A81EE013A13EE104A6BE702EE26
:1043D800106AB7EE004AC4EE025A15EE904A62E738
:1043E800BAF1010FA8D1F1EE400A10EE904A5AE74F
:1043F80006EE906A76EEE67A87EEA75A15EE104A30
:1044080051E700BF90F40008CAF249710000804BE0
:10441800B8F5000F80F257815FED047A20EE270A85
:104428006FF0170710EE108A28F07F424CF27140A7
:1044380022F400024FEAE856C0F21C007F3E824296
:104448003E4442F07E5140F33B814BF2D637C0F2F6
:104458005D07BA4240F38C8100200136A1F50001C6
:104468000246DD4F9200BF1804EE901A97ED005AED
:1044780075EE240AF7EE003A83EEA01A491041F0CF
:10448800005101F580214018D44934EEC56ADFEDAA
:10449800D45A66EE016ADFEDD31A26EEA67A03EE49
:1044A800100A47EE251A88189FEDCF4ACF4901EE2A
:1044B800874A891816EE902A9FEDCD2A22F47F624A
:1044C80022F00F0202EE902A04EE072A33EE458A04
:1044D80002EEC36ADFEDC77A34EEC80A42EE077A05
:1044E80000EE626ADFEDC44A47EE874A26EE015ABB
:1044F80076EEA20A67EE073A20EE851A03EEA41AB2
:1045080022EEA23AB0EE086A73EE061A90ED000A9F
:1045180031EE817AD1ED004A17EE102A22F47F623B
:1045280022F00F0204EE102A74EE465A22EE842A74
:1045380075EEC32A9FEDB13A31EE628A68EE266ABB
:1045480045EE046A9FEDAE4A72EE267A05EE106AD1
:1045580017EE900A20F47F6121F00F0203EE902AF3
:1045680033EEC21A9FEDA72A36EEC17A63EE831A9C
:1045780067EE045A43EE825AF8EEC50A75EE802AB1
:1045880031EEA28A38EE240A70EE206A16EE900AFE
:1045980020F47F6121F00F0207EE902A37EEE05AEF
:1045A80075EE644A74EEE10A72EEE03A25F47F652E
:1045B80025F00F0500EE904A01EE105A06EE102A7B
:1045C80030EEC13A60EEA33A43EE063A66EE011ABF
:1045D8000AF1FF3A33EEA14A5AEA030A14EE103AF6
:1045E800BFEE007AB7EE008A08BFB0EE478A002B0C
:1045F80023F0004440F3A580B4F1864F70DC64D00A
:10460800B4F17C5F75DC0023184614EE102A22F4FE
:104618007F6424F00F0104EE901A74EEE10A9FED16
:104628007A3A33EEE01A9FED796A64EE833A41EE06
:10463800063ADFED771A24EEA14A9FED760A34EEAA
:10464800232ADFED755A22EE027ADFED742A57EE3F
:10465800005ADFED736A45EE872ADFED727A52EE73
:10466800876AF0EE424A46EE877A32EE445A47EEBF
:10467800C74AB0EE003A73EEC50A22EE241A74EE69
:10468800C33A42EE200A81EE236A76EE601A31EED2
:10469800C24AB7EE002A32EE440A10EE102AD318A6
:1046A800B3F5000FC0F2958000EE103A28EE008AAC
:1046B80018EE104AF7E502F00103C3F1020AFFE51C
:1046C80000200246CDE60027AEE6DFED576A34EE5D
:1046D800610A73EEA67AF4EEC07AF1EE10FA08DDFC
:1046E800DFED525A28EE258A28EE257A17EE104A71
:1046F800D9E5E2157E3A4FF4000040FA02F5EA18CF
:10470800C2F3C7514FF6FF70A1F17F05C0F27F00D9
:1047180040FA05F022F07F4422EA000224F4000463
:1047280005EE102A44F40004C1F1960144FA01F0A0
:10473800002B71EEC51AB8BF4042C30533EEA14A3B
:1047480063E70021C4F216318C4208DC7FF458AFCD
:1047580074EE615AF4EEE53AF1EE10FAC9D89FED1D
:10476800342A28EE028A68EE022A12EE904A9AE566
:104778004FF40010012274E6B7EE001A30EE413A09
:104788009FED1B6AF5EE001A03EE616AB6EE004A69
:1047980006EE434A23EE037A9FED262A67EE045A73
:1047A8009FED258A65EE822A53EE082A9FED230A9B
:1047B80063EE006A76EEA27A17EE902A22F47F6002
:1047C80020F00F0205EE102A75EE664A72EEE43A02
:1047D800ECE601F0FFFA69E700F40008F8F30008D6
:1047E80042F1533E55326C3E05A38B3EF0F3000870
:1047F800ABAAAA3EB76DDB3E9A99193F0038763FBF
:104808004F38763FA0C39D368CBEBF351872313FF6
:104818000072313F4CBB31330EEADD3555B38A386F
:10482800610B363BABAA2A3E3CAA3833CAF249711F
:104838006042A20D3BAAB83F70A5EC3600AAB83F6B
:1048480010EE103A23F00042B2F1FF4FF0B449D213
:10485800002A45D0002B4EDBD915B2F5000F09D23E
:1048680013F400044CD15B0001341802FBD5C4F1E9
:104878000100091823F07F4525F40006A1F17F0700
:10488800F90746F4000248BF520053004FF0807405
:1048980000267F109C42304627DD5B004FF4000263
:1048A8001824851851089D4204F1FF3402DCA81829
:1048B8005B1BB6185B0042189A4202DC9B1A501820
:1048C80076185B004A08013CEBD113B106F00101F0
:1048D8007618701000F17C5606EBC75600EE106A89
:1048E800F0BC704700EE000AFAE74FF0007003F1E1
:1048F8007F432646D1E730EE400A80EE000AEFE714
:104908000120B6E7000000002DE9F04F4AF6AB257C
:10491800ADF51B7DD41EC2F6AA2585FB0465E417F8
:10492800A49F304E0A91C4EBA50525EAE5749A4682
:1049380056F827600D94E3430AF1FF37069703EB17
:104948004305834602EBC500069A0D99089612EBBB
:1049580006090990C7EB010446D4A144A59EC4EBFF
:104968000908002C06EB840509F1010908F0010883
:10497800C0F2AA862868FDF7C5FF013420AE0427D7
:104988004C45E6E902012FD0B8F1000F21D0002CE8
:10499800C0F29E86E859FDF7B5FF013404374C454F
:1049A800E6E9020115D11FE0E859FDF7ABFF04372E
:1049B800013406F10808C6E902010FD4E859FDF7E9
:1049C800A1FF013404374C45C8E9020108F1080683
:1049D8000AD0002CE8DA00200021E8E700200021B6
:1049E800EFE700BF08F40008089B002B68DB089974
:1049F800CDF80CA072A800EBC1020DF5E079049285
:104A0800069D002DC0F2E282039C22AE06EBC4078D
:104A180057E902230AF1FF3CDBE900010CF0010829
:104A2800FDF7D6FF02460B4600200021FDF71EFECB
:104A38000126083F564504460D46DE4638D0B8F1F3
:104A4800000F12D077E90223DBE90201FDF7C0FF6E
:104A580002460B4620462946FDF708FE0226564523
:104A680004460D460BF1080E22D0F04657E9022302
:104A7800D8E90201FDF7ACFF02460B46204629465D
:104A8800FDF7F4FD57E9042304460D46D8E904016F
:104A9800FDF79EFF02460B4620462946FDF7E6FD38
:104AA8000236103F564504460D4608F11008DDD180
:104AB800E9E90245039B0499581C894503909FD155
:104AC800089E0EAA02EB860402920B940396039D9D
:104AD800039AEB009AA8C118002A059351E92867A0
:104AE80040F3BB80059D0DF5E479A944039D00239F
:104AF8000DAC04EB850C0022C3F6706330463946D2
:104B0800CDF804C0FDF764FFFEF7FCF9FDF7FAFEE7
:104B180000230022C4F2701304460D46FDF758FF27
:104B280002460B4630463946FDF79EFDFEF7EAF988
:104B38000DF138082B46C8F80000224679E9020131
:104B4800FDF794FDDDF804C0E04506460F46CCF3BA
:104B5800800300F082805BB300230022C3F67063F9
:104B6800CDF804C0FDF734FFFEF7CCF9FDF7CAFE17
:104B780000230022C4F2701304460D46FDF728FFF7
:104B880002460B4630463946FDF76EFDFEF7BAF988
:104B98000DF13C082246C8F800002B4679E90201CD
:104BA800FDF764FDDDF804C0E04506460F4654D025
:104BB800CDF810B0D346E24600230022C3F6706356
:104BC80030463946FDF704FFFEF79CF9FDF79AFEDB
:104BD80000230022C4F2701304460D46FDF7F8FEC8
:104BE80002460B4630463946FDF73EFDFEF78AF988
:104BF80022462B46C8F8040079E90201FDF736FD84
:104C080000230022C3F6706306460F46FDF7E0FE58
:104C1800FEF778F9FDF776FE00230022C4F2701340
:104C280004460D46FDF7D4FE02460B46304639468B
:104C3800FDF71AFDFEF766F92246C8F808002B466C
:104C480079E90201FDF712FD08F10808D04506468A
:104C58000F46B1D1DA46DDF810B047EC106B099871
:104C680000F0E2FF55EC104B00224FF07F5310EE9E
:104C7800100A2946FDF7ACFE41EC100BFEF774FD57
:104C8800002351EC100B0022C4F22003FDF7A0FE14
:104C980002460B4620462946FDF7E6FC0F46064627
:104CA800FEF730F98046FDF72DFE02460B463046EA
:104CB8003946FDF7D9FC099C002C06460F4640F3FF
:104CC8004B81039B0DF1380C5A1EC4F118055CF892
:104CD800223043FA05F101FA05F01B1AC4F1170452
:104CE8004CF82230884443FA04F5002D5ADD039A23
:104CF800002A08F1010840F373810EAB029803EB18
:104D080082010C1A53F8042B201FC0F380000024E2
:104D180022B1C2F1807443F8044C01248B422BD099
:104D280068B10F9A0433002C00F00D81C2F1FF1016
:104D380000F57F4443F8044C01248B421CD053F8FF
:104D4800042BC2F1FF1000F57F4014B9C2F1807046
:104D580012B143F8040C012453F8042BC2F1FF10DC
:104D680000F57F401CB9C2F18070002AE5D001240B
:104D78008B4243F8040CE2D1099B002B0FDD012B79
:104D880000F00E81022B0AD103990EAB481E53F88E
:104D9800202022F07F4121F4400243F82020022DF8
:104DA80000F0E3803046394600220023FEF778F809
:104DB800002800F046840398089F441EA74222DC7E
:104DC8000DF1380C0CEB80010B460B9E53F8042DAB
:104DD800881B011FB342C1F3800011D030B153F8D2
:104DE800046D0B998B4242EA060209D00B9E53F8D8
:104DF800040D53F8041D0243B34242EA0102F6D1FE
:104E0800002A40F0F180089C0DF13809651E59F818
:104E18002530002B40F0E68009EB8507012057F884
:104E2800042D0130002AFAD0039E311806F1010939
:104E380089450C9100F38180069C039B0D9DA59EDE
:104E480004EB0900421E22AC5F1904EBC200059D69
:104E58000C9A049072AB06EB87015F19561C0391FC
:104E680005970796039951F8040F0391FDF74AFD3A
:104E7800049CE4E9020106980494002860DB09EB2D
:104E88000A0322AD05EBC30757E902230AF1FF3CE9
:104E9800DBE900010CF00108FDF79AFD02460B461C
:104EA80000200021FDF7E2FB0126083F5645044695
:104EB8000D46DE4638D0B8F1000F12D077E902234C
:104EC800DBE90201FDF784FD02460B462046294630
:104ED800FDF7CCFB0226564504460D460BF1080E9D
:104EE80022D0F04657E90223D8E90201FDF770FD08
:104EF80002460B4620462946FDF7B8FB57E904232E
:104F080004460D46D8E90401FDF762FD02460B464A
:104F180020462946FDF7AAFB0236103F56450446AF
:104F28000D4608F11008DDD1059A0799E2E9024516
:104F380009F101098945059294D10C980390C6E5B9
:104F480000240025F0E7002A3FF4F7AEC2F1807292
:104F580043F8042C0124F0E62FD103980DF1380E04
:104F6800411E5EF82120D515BFE6002132463B469A
:104F78000020C3F6F071FDF777FB06460F46002CBC
:104F88003FF410AF09989FEDA60B00F04DFE304698
:104F9800394653EC102BFDF767FB06460F4601E731
:104FA80003980DF1380E431E5EF8231021F07F425E
:104FB80022F400004EF82300F1E600230022C3F695
:104FC800E073FDF78BFF20B90025EBE600240025F0
:104FD8006EE5039A0225002A08F101083FF78DAE15
:104FE8000024C9E601201FE70EAA0695099D52F87C
:104FF8002430CDF81C80183D0995002B40F06C83B7
:1050080002EB84060394294656F8040D013C18392E
:105018000028F9D0039409919FED810B099800F0BD
:1050280003FE039E002E55EC104BC0F2D080771C77
:105038000497DDF810900DF5E47B0EAA0BEBC7067C
:1050480002EB8907CBEB0608A8F1080357F8040D13
:10505800C3F3C008FDF756FC22462B46FDF7B8FC03
:10506800002366E90201002220462946C3F6706340
:10507800FDF7AEFC5E4504460D4644D0B8F1000F7E
:1050880015D057F8040DFDF73DFC22462B46FDF7D9
:105098009FFC002366E90201002220462946C3F648
:1050A8007063FDF795FC5E4504460D462BD057F816
:1050B800040CFDF727FC22462B46FDF789FC00234C
:1050C80046E902010022C3F6706320462946FDF72F
:1050D8007FFC04460D4657F8080CFDF713FC2246E2
:1050E8002B46FDF775FC002346E904010022204603
:1050F8002946C3F67063FDF76BFC103E083F5E451A
:1051080004460D46D3D10399481E4FF00009059077
:10511800089A002AC0F29082B9F1000FC0F28C827E
:10512800059E089B404FC9EB060E0024002500266B
:10513800DB070BEBCE0812D5F8E90223F7E90201E9
:10514800FDF746FC02460B4620462946FDF78EFA37
:105158000D4608990126B14204462CDA2DE0D8E91B
:105168000223D7E90201FDF733FC02460B4620462D
:105178002946FDF77BFA044607F10800089F06F167
:10518800010A08F10802023657450D4600F10807E2
:1051980002F1080811DBCA450FDCD2E90223D0E985
:1051A8000201FDF715FC02460B4620462946FDF78D
:1051B8005DFA04460D464E45D1DD4AAB03EBC90105
:1051C800C1E90045049C09F10109A145A0D1A49CAD
:1051D800032C1DD8DFE814F0F3017A017A012A00C4
:1051E80000252F460698002800F05F81059E0A9C3E
:1051F8007168F0683268B368226001F1004100F11B
:10520800004007F100476160A360E06025616761C5
:10521800079D05F007000DF51B7DBDE8F08F00BF69
:10522800000000000000F03F10F40008039E002E6C
:1052380040F36482039E4AAD721C05EBC20353E936
:10524800046753E902AB05954CAD04935C1B5246C9
:105258005B46304639460895FDF708FA8046894688
:1052680042464B4630463946FDF7FEF902460B46A4
:1052780050465946FDF7FAF9DDF810B06BE902011E
:10528800083CAB45C4F3C0044BE9028959D0E4B1EA
:105298005BE9046742464B4639463046FDF7E6F976
:1052A80004460D46224639462B463046FDF7DCF9C2
:1052B80002460B4640464946FDF7D8F96BE902011C
:1052C800089FBB454BE902453BD0DA467AE902899B
:1052D8005BE9046742464B4630463946FDF7C6F956
:1052E80004460D463046394622462B46FDF7BCF9A2
:1052F80002460B4640464946FDF7B8F94BE902011C
:105308005AE9048922462B464AE90245404649465D
:10531800FDF7ACF906460F4632463B46404649463D
:10532800FDF7A2F902460B4620462946FDF79EF9ED
:10533800AAF1080B4AE902014BE90267089EB34546
:10534800C3D1039901297FF74BAF0498059F50E912
:1053580002AB50E9044510375B46C61B524620464F
:1053680029460397FDF782F98046894642464B460F
:1053780020462946FDF778F902460B46504659461D
:10538800FDF774F9DDF810B06BE90201083EBB4582
:10539800C6F3C0064BE9028959D0E6B15BE9046758
:1053A80042464B4630463946FDF760F904460D46FD
:1053B80022462B4630463946FDF756F902460B463B
:1053C80040464946FDF752F96BE90201039A9345B5
:1053D8004BE902453BD0DA467AE902895BE9046782
:1053E80042464B4630463946FDF740F904460D46DD
:1053F8003046394622462B46FDF736F902460B461B
:1054080040464946FDF732F94BE902015AE9048959
:1054180022462B464AE9024540464946FDF726F909
:1054280006460F4632463B4640464946FDF71CF9BC
:105438000B46024629462046FDF718F9039BAAF1B8
:10544800080B9B454AE902014BE90267C3D1049C5A
:10545800039D0020671B014674E90223FDF706F946
:10546800083FC7F3C0060F4603998C4205463FF430
:10547800B9AE36B12846394674E90223FDF7F6F885
:105488000AE054E9022328463946FDF7EFF854E9C3
:105498000423FDF7EBF8103C039EB44205460F4683
:1054A800EFD1069800287FF4A1AE059C059994EDEC
:1054B800007B91ED020B2A460A9C0A9D3B4685ED2E
:1054C800007B84ED020BC4E90423A1E603980028BD
:1054D800C0F21081039D4AAC691C04EBC106002090
:1054E800354675E90223C4EB060C0146ACF1080801
:1054F800FDF7BCF8A542C8F3C00802460F461BD00A
:10550800B8F1000F07D075E90223FDF7AFF8A542FF
:1055180002460F4610D01046394655E90223FDF7DA
:10552800A5F8064655E904233046FDF79FF8103DD7
:10553800A54202460F46EED1069D002D7FD007F109
:105548000040034619463B460A9F1046C7E900013A
:10555800D4E90001FDF788F8039A002A844624DD7F
:10556800254604EBC2066046F5E90223FDF77EF8FE
:10557800341B083CB542C4F3C004844615D03CB182
:105588006046F5E90223FDF771F8B54284460CD070
:105598006046D5E90223FDF769F8D5E90423FDF74C
:1055A80065F81035B5428446F2D1069E0EB101F178
:1055B80000410A9F62460B46C7E9022328E6039E7C
:1055C800002EC0F29480711C4AAC04EBC103002089
:1055D8001D46C4EB030E014675E90223AEF1080827
:1055E800FDF744F8A542C8F3C00807460E4619D08F
:1055F800B8F1000F07D075E90223FDF737F8A54287
:1056080007460E460ED055E9022338463146FDF7C7
:105618002DF855E90423FDF729F8103DA542074662
:105628000E46F0D1069C0CB106F100460A993A469E
:105638003346C1E90023EBE500240025BDE53846E3
:105648007FE747EC106B099ECDF81C8070420695E9
:1056580000F0EAFA57EC106B002310EE100A3946F6
:105668000022C4F27013FDF739FC002836D000235D
:105678000022C3F6706330463946FDF7A9F9FDF7F5
:1056880041FCFDF73FF900230022C4F270130446E1
:105698000D46FDF79DF902460B4630463946FCF7A4
:1056A800E3FFFDF72FFC0EAF039E294647F82600BF
:1056B8002046FDF727FC0999731C0EAA183103939D
:1056C800099142F82300A7E400200021FFF755B90B
:1056D80000200021FFF761B903949DE43946304664
:1056E800FDF710FC0EAF039D47F8250094E4002752
:1056F8003E4697E7002217464AAC1DE700254AA810
:105708002F4605906EE500BF2DE9F04F10EE90BAD8
:105718004FF6FF718BB02BF00046C3F62F618E4217
:1057280010EE909A10EE10AA11EE107A11EE908AEF
:1057380007901EDC10EE100A10EE901AFDF7E2FB3F
:1057480000283FD10799504606434A1C56EA0203EF
:1057580000F07D81079B012B00F02A810021524631
:105768005B460020CBF6F071FDF75CFA82468B466B
:105778001EE149F22740C3F6E570864222DDBBF1FF
:10578800000FB8BF0BF1004B10EE102A5B46BAA110
:10579800D1E90001B8BF08F10048FCF765FF3A46B7
:1057A800434604460D46B6A1D1E90001FCF75CFF6B
:1057B80002460B4620462946FCF758FF002782463A
:1057C8008B46B84652465B4650465946FDF700F9A7
:1057D80002460B46CDE90201FDF7FAF852460446A7
:1057E8000D465B46DDE90201FDF7F2F8A6A3D3E911
:1057F8000023CDE9040120462946FDF7E9F8A4A3D2
:10580800D3E90023FCF732FF22462B46FDF7E0F8E8
:10581800A1A3D3E90023FCF729FF22462B46FDF775
:10582800D7F89FA3D3E90023FCF720FF22462B4695
:10583800FDF7CEF89CA3D3E90023FCF717FF224617
:105848002B46FDF7C5F89AA3D3E90023FCF70EFF12
:1058580099A3D3E90023CDE9080120462946FDF79D
:10586800B7F897A3D3E90023FCF700FF22462B469D
:10587800FDF7AEF894A3D3E90023FCF7F7FE224620
:105888002B46FDF7A5F892A3D3E90023FCF7EEFE1B
:1058980022462B46FDF79CF88FA3D3E90023FCF79B
:1058A800E5FE22462B46FDF793F88DA3D3E90023A6
:1058B800FCF7DCFEDDE90223FDF78AF802460B4619
:1058C800DDE90801FCF7D2FEDDE90423FDF780F8E5
:1058D80043463A46FCF7CAFEDDE90223FDF778F8AD
:1058E80043463A46FCF7C2FE7FA3D3E900230446A9
:1058F8000D46DDE90401FDF76BF822462B46FCF75F
:10590800B5FE04460D465046594622462B46FCF73E
:10591800ADFE884649F22741C3F6E5718E428446BA
:105928004DDC0798012800F0A38000216246434619
:105938000020CBF6F071FDF775F947460026CDE952
:105948000201CDE9040152465B46304639460296CB
:10595800FCF78AFE02460B4620462946FCF784FEE1
:10596800B046B946DDE9026702460B46304639467D
:10597800FDF72EF8424604460D464B46304639465A
:10598800FDF726F800230022C3F6F073FCF76EFE3D
:1059980002460B4620462946FCF768FEDDE904234B
:1059A800FDF716F832463B46FCF760FE82468B460A
:1059B80052465B4643EC102B0BB0BDE8F08F0798BE
:1059C800CDF804C0FCF79EFFDDF804C0CDF80C80CC
:1059D800CDF808C006460F4662464346DDE9020197
:1059E800FCF7F6FFDDF804C0CDE902013246604657
:1059F8003B464146FCF73AFE02460B46DDE902010A
:105A0800FDF710F922462B46FCF72EFE02460B4600
:105A180050465946FCF728FE02460B46FCF726FE80
:105A280002460B4630463946FCF71EFE4FEAA9727D
:105A380002F0020304460D46C3F10100FCF762FFC1
:105A480022462B46FCF7C4FF82468B46B0E75246F7
:105A58005B4643EC102B00F04BF800210020C3F606
:105A6800F07153EC102BFDF7DDF882468B469FE76B
:105A7800E246C3469CE700BF182D4454FB21E93F8A
:105A8800075C143326A6813C735360DBCB75F3BEE9
:105A9800A69237A0887E143F0165F2F2D844433FAE
:105AA800280356C9226D6D3F37D60684F464963FA5
:105AB8007AFE10111111C13FD47ABF74702AFB3ECF
:105AC800E9A7F0320FB8123F68108D1AF726303F59
